:020000040800F2
:10000000B80B0020E50100081D1B0008D50F0008F3
:10001000691A00088F0C0008032B0008000000007C
:10002000000000000000000000000000D9220008CD
:10003000E90D0008000000008D020008ED23000813
:10004000FF010008FF010008FF010008FF01000890
:10005000FF010008FF010008FF010008FF01000880
:10006000FF010008FF010008FF010008FF01000870
:10007000850D0008FF010008FF010008FF010008CE
:10008000FF010008FF010008FF010008FF01000850
:10009000FF010008FF010008FF010008FF01000840
:1000A000FF010008FF010008FF010008FF01000830
:1000B000FF01000879240008FF010008FF01000883
:1000C000FF010008FF010008FF010008FF01000810
:1000D000FF010008FD270008FF010008852800082F
:1000E000FF010008FF010008FF01000800F002F80E
:1000F00000F068F80AA090E8000C82448344AAF15A
:100100000107DA4501D100F05DF8AFF2090EBAE857
:100110000F0013F0010F18BFFB1A43F0010318473B
:100120002C5500004C5500000A444FF0000C10F80C
:10013000013B13F0070408BF10F8014B1D1108BF65
:1001400010F8015B641E05D010F8016B641E01F805
:10015000016BF9D113F0080F1EBF10F8014BAD1C55
:100160000C1B09D16D1E58BF01F801CBFAD505E073
:1001700014F8016B01F8016B6D1EF9D59142D6D3CD
:10018000704700000023002400250026103A28BFF5
:1001900078C1FBD8520728BF30C148BF0B607047F9
:1001A000702900F07381642900F00081782900F043
:1001B0006081732900F04783002070471FB51FBD81
:1001C00010B510BD00F076FB1146FFF7F7FF02F007
:1001D000D1FF00F094FB03B4FFF7F2FF03BC02F081
:1001E00099FC00000948804709480047FEE7FEE700
:1001F000FEE7FEE7FEE7FEE7FEE7FEE7FEE7FEE7D7
:1002000004480549054A064B7047000019240008B8
:10021000ED000008B8050020B80B0020B80700204A
:10022000B807002072B62C482C49026841EA020146
:1002300001602B484FF0010101602A4841680160CC
:1002400001688A884FF0100342EA03028A80D1F8DD
:1002500000C00CF1240CBCE8FF008CF309884FF0BF
:10026000020C8CF31488AE4662B63047EFF3108070
:1002700072B67047EFF3108062B6704780F3108853
:10028000704719484FF0805101607047EFF3108CB0
:1002900072B6164A126822B12DE900509047BDE8A7
:1002A0000050EFF3098020E9F01F0E4D4FF01008C9
:1002B0002E683060B78827EA0807B780686828602A
:1002C000878847EA080787800168B1E8F01F81F353
:1002D00009888CF31088704720ED00E00000FFFFD4
:1002E000DC000020A400002004ED00E0E00000207D
:1002F000704700000FB4044910B503AA029800F03B
:10030000A7FA10BC5DF814FB6400002070B5044629
:1003100085690068C10601D5302600E02026C007A7
:1003200007D070BDD4E9012130469047206A401CB7
:1003300020626D1EF6D570BD70B5044685690078E3
:10034000C00707D170BDD4E9012120209047206A61
:10035000401C20626D1EF6D570BD70B50C4605467A
:10036000012A05D02878800600D5EA69002302E03A
:10037000012305E05B1C934202D2E05C0028F9D126
:10038000A869E618C01AA861286A18442862284695
:10039000FFF7BCFF04E0D5E9012114F8010B9047F9
:1003A000B442F8D32846FFF7C7FF70BD2DE9F041EE
:1003B0000646002410687529314616A510D0AFF303
:1003C0000080002802DA404213A507E031688A075E
:1003D00001D512A502E0490704D511A5012401E0C9
:1003E000AFF3008000210A2206F1240709E0B0FBE8
:1003F000F2FCB0FBF2F302FB1C00303078541846DC
:10040000491C0028F3D123462A463046BDE8F04176
:1004100000F0AEB9000000002D0000002B0000002D
:1004200020000000F0B40D460188090502D51B4CE0
:100430007C4402E0194C7C440E34002100F124037A
:1004400005E002F00F061209A65D5E54491C002A61
:10045000F7D102780023120704D5702D06D009B118
:10046000022311342246F0BC00F082B9012310347B
:10047000F8E770B504460D4621461068AFF30080DA
:10048000024629462046BDE87040CBE70368126863
:1004900043F0200303600823C361C3E7DC5100007D
:1004A0002DE9F05F894604464FF0000ADFF824B1D9
:1004B000FB44C0F820A02046E168884700287DD092
:1004C000252806D0D4E901219047206A401C2062EB
:1004D000F1E700255F462046E16888472028064668
:1004E00007DB312E05D2B81910F8200C08B10543EE
:1004F000F1E7A80701D525F00405C4F81CA00027E2
:10050000C4F818A02A2E09D0304602F0FCFA38B3FD
:1005100004EB8708303EC8F8186019E059F8041B4E
:10052000204604EB87029161E1688847012F064667
:1005300018D1E069002820DA25F020051DE0D8F860
:10054000180000EB800006EB40003038C8F81800B7
:100550002046E1688847064602F0D5FA0028EED129
:10056000012F0AD02E2E08D12046E16888477F1C33
:100570000646022F45F02005C4DBA069002803DAF7
:10058000404245F00105A061E80701D025F01005C3
:10059000A6B1A6F14100192802D8203645F400651D
:1005A0004A463146204625604D46FFF7F9FD60B1C9
:1005B000012807D0ED1D25F0070000E007E000F15D
:1005C000080978E705F1040975E730467AE7206AFB
:1005D000BDE8F09F84510000032A40F2308010F003
:1005E000030C00F0158011F8013BBCF1020F6244CE
:1005F00098BF11F801CB00F8013B38BF11F8013B5F
:10060000A2F1040298BF00F801CB38BF00F8013B0B
:1006100011F0030300F02580083AC0F0088051F87B
:10062000043B083A51F804CBA0E80810F5E7121D86
:100630005CBF51F8043B40F8043BAFF30080D207A5
:1006400024BF11F8013B11F801CB48BF11F8012B71
:1006500024BF00F8013B00F801CB48BF00F8012B94
:10066000704710B5203AC0F00B80B1E81850203A1E
:10067000A0E81850B1E81850A0E81850BFF4F5AF42
:100680005FEA027C24BFB1E81850A0E8185044BFCC
:1006900018C918C0BDE810405FEA827C24BF51F839
:1006A000043B40F8043B08BF7047D20728BF31F82D
:1006B000023B48BF11F8012B28BF20F8023B48BF7E
:1006C00000F8012B704702F0FF0343EA032242EADD
:1006D000024200F002B84FF000020429C0F012807C
:1006E00010F0030C00F01B80CCF1040CBCF1020FE5
:1006F00018BF00F8012BA8BF20F8022BA1EB0C01BA
:1007000000F00DB85FEAC17C24BF00F8012B00F8AF
:10071000012B48BF00F8012B70474FF0000200B5D5
:10072000134694469646203922BFA0E80C50A0E814
:100730000C50B1F12001BFF4F7AF090728BFA0E8C2
:100740000C5048BF0CC05DF804EB890028BF40F88E
:10075000042B08BF704748BF20F8022B11F0804FD0
:1007600018BF00F8012B70477047704770477047FB
:100770002DE9F0470D4699469246044600F12408BB
:100780000168880604D5E06921F01001216000E0CD
:100790000120A84201DD471B00E00027A1697A196A
:1007A00002EB0900081AA0612078C00602D4204696
:1007B000FFF7ACFD002608E0D4E901211AF8060095
:1007C0009047206A401C761C20624E45F4DB20785E
:1007D000C0060AD52046FFF799FD06E0D4E90121BD
:1007E00030209047206A401C2062381EA7F1010784
:1007F000F4DC07E0D4E9012118F805009047206AED
:10080000401C2062281EA5F10105F3DC2046FFF7FD
:1008100093FD2078000602D50220BDE8F087012074
:10082000FBE710B5436913B1AFF3008001E0FFF7B8
:1008300094FD012010BD127800F124010A700022FD
:100840004A700122EDE711684FF0FF32E9E700003E
:10085000074B70B50D467B4400F011F8044628465E
:1008600000F020F810B14FF0FF3070BD204670BD91
:10087000B723000001694A1C02610878704700B57F
:100880008FB0CDE901310021059105497944CDE9C9
:10089000031011466846FFF703FE0FB000BD0000CD
:1008A000E5FFFFFF007B00F08000704700487047C5
:1008B000540500207546FFF7F9FFAE46050069466E
:1008C000534620F00700854618B020B5FFF798FC86
:1008D000BDE820404FF000064FF000074FF0000841
:1008E0004FF0000B21F00701AC46ACE8C009ACE8C2
:1008F000C009ACE8C009ACE8C0098D46704710B526
:100900000446AFF300802046BDE81040FFF763BC0B
:1009100021B1826842F00102826003E0826822F025
:10092000010282607047000010B5044612488442FC
:1009300008D10121401501F0D5FB0021601501F01F
:10094000D1FB17E00D48844208D10121001501F0C8
:10095000C9FB0021201501F0C5FB0BE008488442CB
:1009600008D10121C80301F0BDFB00214FF4004074
:1009700001F0B8FB10BD0000002401400028014038
:10098000003C0140014600208A6802F004020AB1DE
:10099000012000E000207047014600208A6802F034
:1009A00008020AB1012000E00020704730B502467D
:1009B0000020002350680F4C20400D790C6844EA59
:1009C00005242043506090680B4C2040D1E902542C
:1009D0002C434D7944EA450420439060D06A20F4CA
:1009E00070000C7C641EE4B2234340EA0350D062E2
:1009F00030BD0000FFFEF0FFFDF7F1FF816841F020
:100A0000080181607047816841F00401816070478E
:100A100000B587B001214FF4017001F053FB1020A5
:100A2000ADF8180000208DF81B0003208DF81A0087
:100A300006A91A4800F0D9F94FF4004001F016FB5E
:100A40001748FFF771FF00208DF8090004904FF45C
:100A5000602003900020019001208DF814000020F8
:100A60008DF8080001A90E48FFF7A0FF01210C48EE
:100A7000FFF74EFF0A48FFF7C1FF00BF0848FFF726
:100A80008BFF0028FAD10648FFF7BDFF00BF0448DE
:100A9000FFF778FF0028FAD107B000BD0008014039
:100AA0000024014010B586B000240420ADF80400F5
:100AB00025A00490264800904FF4007003906946EA
:100AC000244800F04FFD044634B1214622A0FFF730
:100AD00011FC204606B010BD26A0FFF70BFC042039
:100AE000ADF8040025A00490264800904FF4007053
:100AF00003906946174800F035FD04462CB12146A5
:100B000021A0FFF7F7FB2046E4E70720ADF804003B
:100B100024A00490254800904FF40070039069468B
:100B2000234800F01FFD044624B9214621A0FFF709
:100B3000E1FB06E02CB1214626A0FFF7DBFB2046B7
:100B4000C8E70020C6E7000052785461736B0000CC
:100B5000151A0008340000204C6564315461736B31
:100B600020637265617465206661696C65642C251B
:100B7000580D0A006C6564310D0A00005478546108
:100B8000736B0000411A00084C6564325461736B4A
:100B900020637265617465206661696C65642C25EB
:100BA000580D0A004454483131000000090D000876
:100BB0003800002044485431315F7461736B206306
:100BC000726561746520737563636573732C255852
:100BD0000D0A000044485431315F7461736B206327
:100BE0007265617465206661696C65642C25580DB9
:100BF0000A00000010B5044602F076FA462002F022
:100C000049FA02F099FA012800D110BD204602F0FD
:100C100041FA02F091FA012801D10220F5E702F031
:100C20007BFA0020F1E710B500F0D6F900F004F8E7
:100C30001020FFF7DFFF10BD10B50120FFF7DAFF2E
:100C400010BD10B54FF4407000F0A2FF4FF4E1303A
:100C500004F010F801F060FF00F0FEFF00F0A2FFCA
:100C600002F0B4FA41F61F41C72000F0FFFEFFF783
:100C7000CFFE00F00FF8FFF7D6FF00F0C5F904F043
:100C8000A5F800F093F9012002F0B8F810BD00BFFC
:100C9000FEE7000008B50121082001F013FA40200A
:100CA000ADF8000010208DF8030003208DF802003D
:100CB0006946044800F099F84021024800F073F9B1
:100CC00008BD0000000C014008B54020ADF8000050
:100CD00048208DF803006946014800F086F808BDF9
:100CE000000C014008B54020ADF8000010208DF840
:100CF000030003208DF802006946024800F075F8F1
:100D000008BD0000000C014011A0FFF7F3FA1DE040
:100D100011A0FFF7EFFA144801F08EFA012811D163
:100D200011488278017811A0FFF7E4FA0E480278A2
:100D30000521102001F022F80B48827803211020B1
:100D400001F01CF84FF4967000F01AFDE0E7000087
:100D500064746831310D0A00444854313120776F92
:100D6000726B696E670D0A00140000200D0A20CA1C
:100D7000AAB6C83A25642CCEC2B6C83A2564200D5E
:100D80000A00000010B5202000F018F828B1034830
:100D900000688047202000F003F810BD6C000020A0
:100DA00000F0805111B10349086001E00249486038
:100DB0007047000004040240000002400146002089
:100DC000002201F0805313B1054B1A6801E0054B76
:100DD0001A6802EA01030BB1012000E0002070470D
:100DE000000402400000024070472DE9F041024635
:100DF00000250026002000230024002791F803C0CE
:100E00000CF00F0591F803C00CF0100CBCF1000FB2
:100E100003D091F802C04CEA050591F800C0BCF17E
:100E2000000F31D0146800202BE04FF0010C0CFAB9
:100E300000F3B1F800C00CEA03069E4220D1830003
:100E40004FF00F0C0CFA03F7BC4305FA03FC4CEA15
:100E5000040491F803C0BCF1280F06D14FF0010C37
:100E60000CFA00FCC2F814C00AE091F803C0BCF10F
:100E7000480F05D14FF0010C0CFA00FCC2F810C06D
:100E8000401C0828D1D31460B1F800C0BCF1FF0F9A
:100E900034DD546800202EE000F1080C4FF001080A
:100EA00008FA0CF3B1F800C00CEA03069E4221D107
:100EB00083004FF00F0C0CFA03F7BC4305FA03FC58
:100EC0004CEA040491F803C0BCF1280F05D100F1ED
:100ED000080C08FA0CF8C2F8148091F803C0BCF1B1
:100EE000480F07D100F1080C4FF0010808FA0CF880
:100EF000C2F81080401C0828CED35460BDE8F081B1
:100F0000F0B50A46002300240021002500F0004629
:100F1000B6F1004F02D11D4EF16901E01B4E716820
:100F2000C0F3034583B200F44016B6F5401F08D164
:100F300021F07061154E766826F07066134F7E6062
:100F400012E000F48016B6F5801F06D1032606FADB
:100F500005F4A14341F0706106E0460D360103FA45
:100F600006F6B14341F0706122B1460D360103FA35
:100F700006F6314300F00046B6F1004F02D1034EB1
:100F8000F16101E0014E7160F0BD00000000014020
:100F90000246002093680B400BB1012000E00020C6
:100FA00070474161704701617047000010B501F062
:100FB000F3FE41F61F41092001F06EFA4FF416507E
:100FC00003F0ACFE13210248FFF785FB10BD0000C3
:100FD000A803002000BFFEE708B50121042001F0AE
:100FE00071F8C020ADF8000003208DF80200142035
:100FF0008DF8030069460348FFF7F7FE02F08CF80E
:1010000008BD00000008014008B50121042001F0DE
:1010100059F80820ADF8000010208DF803000120D9
:101020008DF8020069460448FFF7DFFE08210248F8
:10103000FFF7B7FF08BD0000000801400246501846
:10104000401E904204D95018401E4B1E98437047D2
:10105000481E22EA0000FAE710B502F015FE2A4801
:101060002A49086002F078FB044654B100BF28A06A
:10107000FFF740F9214628A0FFF73CF900BF2046C2
:1010800010BD03F0E7F904464CB100BF20A0FFF704
:1010900031F928A0FFF72EF900BF2046F0E703F052
:1010A0006DFA02F0FBFD04460CB12046E8E702F0C1
:1010B00061FB04460CB12046E2E702F0A9FC0446BD
:1010C0004CB100BF12A0FFF715F91FA0FFF712F9EE
:1010D00000BF2046D4E702F03FFF04464CB100BFFA
:1010E0000BA0FFF707F91DA0FFF704F900BF20468A
:1010F000C6E703F08DFC02F005FB04460CB1204668
:10110000BEE70020BCE70000B80B002078000020FC
:101110005B4552525D2000006F734D656D537973CE
:1011200074656D496E6974206572726F72202564F2
:101130000A0000006F735461736B496E6974206517
:1011400072726F720A0000006F73517565756549A0
:101150006E6974206572726F720A00006F73537744
:10116000546D72496E6974206572726F720A000064
:1011700042684A6008604268116041607047426896
:101180004A600860426811604160704742684A6086
:101190000860426811604160704742684A600860B8
:1011A0004268116041607047D0E900121160D0E9D7
:1011B000002151600021416001607047014648688C
:1011C000884201D1012070470020FCE701464868B1
:1011D000884201D1012070470020FCE701464868A1
:1011E000884201D1012070470020FCE74060006088
:1011F000704740600060704740600060704740602A
:101200000060704770B504460D4629462068FFF718
:10121000AFFF70BD70B504460D46002604B10DB990
:10122000304670BD2946204602F0D6FD064626B956
:101230002946204602F080F806463046F1E770B5B0
:1012400004460D46164632462946204602F028F945
:1012500070BD70B504460D46002604B10DB90120DD
:1012600070BD2946204602F007FE0646012E04D036
:101270002946204602F042F90646012E01D00120FF
:10128000EEE70020ECE700002DE9F84F04460E469B
:101290004FF0010830480568D0F800900CB1502E8E
:1012A00002D80120BDE8F88F04F0030008B1012046
:1012B000F8E7FEF7DBFF824620E0A8684719AC425A
:1012C00002D8A019A84204D8BC4215D2A019B8422D
:1012D00012D300BF21A0FFF70DF8A8682844A21977
:1012E0002B46214600901FA0FFF704F800BF504690
:1012F000FEF7C4FF0120D5E7A946ED68002DDCD13B
:101300003146204602F09AF98046B8F1000F04D128
:101310005046FEF7B3FF0120C4E7B6F5805F0BD35C
:10132000204602F0E3FD8046B8F1000F04D150469C
:10133000FEF7A4FF0120B5E70748006810B906488A
:10134000046001E0C9F80C400020E0605046FEF760
:1013500095FF0020A6E70000400100205B455252A7
:101360005D200000706F6F6C205B25702C20307842
:1013700025782920636F6E666C69637420776974C1
:101380006820706F6F6C205B25702C20307825787A
:10139000290A00002DE9F05F0E469046DDF82890FE
:1013A00009F104001FFA80FAB8F1000F02D12E48AB
:1013B000BDE8F09F4FF6FB70814502DD2A480938F1
:1013C000F6E716B1B9F1000F02D12748401CEFE74C
:1013D00006FB0AF125480068FFF71CFF074617B90E
:1013E00021480A38E4E7FEF741FF83462048FFF72B
:1013F000F5FE50B15846FEF741FF39461B480068DC
:10140000FFF727FF18480838D2E71948456800BF9A
:10141000D5E900010860D5E9001048600020686047
:10142000286000BFA5F11C04E680A4F808A027608E
:101430000120A080002020826682A081E08104F14A
:101440001400FFF7D9FE04F11C00FFF7D5FE04F1EC
:101450002400FFF7D1FE5846FEF710FF6089C8F858
:1014600000000020A4E700000C0600027800002025
:101470001C0100202DE9F84381460C4615461E4606
:1014800033462A462146484602F0BEFB074617B1BE
:101490003846BDE8F8834FF000082B462246414607
:1014A0004846009602F0ECFAF3E72DE9FF4182B0DE
:1014B00080460C461D462B4604AA2146404602F0B3
:1014C000C3FB06461EB1304606B0BDE8F0810327D7
:1014D00004AB224639464046009502F0D1FAF3E7C4
:1014E00010B5FEF7C3FE044602F0F8F928380A49A1
:1014F0004860084600684968884208D00748008864
:1015000028B92046FEF7BAFEFEF7BBFE10BD204606
:10151000FEF7B4FE00BFF9E7A4000020AC000020F5
:1015200010B503F0D1F904464CB100BF06A0FEF798
:10153000E1FE07A0FEF7DEFE00BF204610BDFEF76D
:1015400071FE2046FAE700005B4552525D20000024
:101550006F735469636B5374617274206572726F38
:10156000720A00002DE9F04105460F460026394673
:10157000284600F045F8064616B13046BDE8F08131
:101580002868C0EBC00000EB40001949096801EB76
:101590008004FEF76BFE8046A08820F00200A08049
:1015A000A08840F00400A080E18804F1280002F047
:1015B00039F902F093F928380E4948600E4800685E
:1015C00088B10E48008870B90846006849688842AA
:1015D00009D00A48008830B94046FEF74FFE02F0B5
:1015E00059FB0020CAE74046FEF748FE0020C5E749
:1015F000A0000020A4000020DC000020AC0000209F
:101600002DE9F05F07460C464FF000084FF0FF3A17
:1016100017B95448BDE8F09F14B95248801FF9E744
:10162000206910B94F48801EF4E7206810B94D4872
:10163000C01EEFE7A0881F2802DD4A48001FE9E727
:10164000A0881F2806D148492068884202D0454812
:10165000001FDFE74549464A511AE068884202D92F
:1016600040481930D6E7E06810B94FF43470E060B4
:101670000821E068FFF7E2FCE060E068B0F5987FE1
:1016800002D23848401EC5E7FEF7F0FD834612E05F
:1016900038484068A0F1280536494868FFF784FDBE
:1016A00005F128013448FFF763FD3048E968FFF78A
:1016B000D0FD0020E8602F48FFF788FD0028E7D024
:1016C0002D48FFF783FD28B1DFF898A00AF10A0A38
:1016D00000BF41E028484068A0F128052649486835
:1016E000FFF762FD5846FEF7C9FDD5F810800822C5
:1016F0001E48E168FFF7A3FD06465EB9FEF7B6FD9A
:10170000834605F128011C48FFF732FDDFF86CA085
:1017100000BF21E032464046E16803F081F981468E
:10172000C5F80090A0682862EE60E068A86000201C
:10173000A861E8610220A880A088E880206868612C
:101740004FF0FF30E8630020A86420696862002041
:101750002865C7F800805DE75846FEF78FFD5046C4
:1017600058E700000702000201370008B80B00200C
:1017700000500020CC000020C40000200002000324
:1017800070B5044601F0E4FF08B1184870BD184870
:10179000008808B11748F9E714B900F0EBF8F5E74D
:1017A000FEF764FD05461449096801F1280002F0BE
:1017B00013F811480068808820F004000E49096879
:1017C00088800D490868214602F0C8FD0A48006873
:1017D000808840F020000849096888802846FEF784
:1017E0004DFDFFF77DFE0020D0E700000D02000355
:1017F000AC0000200E020002A40000202DE9F04100
:1018000006464FF0FF3751480068864202D15048E3
:10181000BDE8F0814F480068864202D14C480D3047
:10182000F6E74D480068864202D349480D38EFE795
:10183000FEF71CFD8046C6EBC60000EB40004749A2
:10184000096801EB8004A58805F0010018B1404F3C
:101850000A3F00BF74E005F0100028B1404800883E
:1018600010B100203E49088005F0040040B104F1A9
:10187000280001F0B1FFA08820F00400A08009E05A
:1018800005F0080010B905F4005018B104F1280063
:10189000FFF78AFC05F0600010B1204603F06EF8F7
:1018A000A08820F00200A080A08840F00100A08065
:1018B0004FF0FF30E0630020A06402F00FF82838FA
:1018C00028494860207900F0100038B304F128015D
:1018D0002548FFF797FC20480068C0EBC00000EBEC
:1018E00040001E49096801EB80001E490860084657
:1018F00000680661A088096888801A49E06809685C
:10190000C8601849606A096848620120A0804046A2
:10191000FEF7B4FC02F0BEF9002079E70120A080B8
:1019200004F128011148FFF723FC1148E168FFF793
:1019300090FC0020E0604046FEF7A0FC002067E736
:101940004046FEF79BFC384662E70000B4000020EA
:1019500014020002B8000020B0000020A000002007
:10196000AC000020A4000020CC000020C400002017
:10197000B80B002070B50024204800680069204999
:101980000968884201D31F4870BD1C48006800796F
:1019900000F0040008B90020F6E7FEF767FC0546F2
:1019A00016490968C88801F085FF0446012C17D93B
:1019B0001249096801F12800FFF7F6FB0F4800689B
:1019C000808840F004000D49096888800B4A12683D
:1019D000D1880A4A126802F1280001F023FF05E0CD
:1019E0002846FEF74BFC07480930CDE72846FEF7AE
:1019F00045FCFFF775FD0020C6E70000A4000020AD
:101A0000B000002007020002014903C9704700002E
:101A1000E80000200DE007A0FEF76CFC4FF47A70A0
:101A2000FFF7AEFE03A0FEF765FC4FF47A70FFF7F8
:101A3000A7FEF0E77265616479310D0A00000000CD
:101A40000BE006A0FEF756FCC820FFF799FE03A0A6
:101A5000FEF750FCC820FFF793FEF2E77265616461
:101A600079320D0A0000000000BFFEE730B589B0F2
:101A700005460C460121042000F024FB0121084604
:101A800000F000FB0121084600F01CFB18208DF837
:101A900023000E20ADF8200003208DF82200002046
:101AA000ADF81A00ADF81600ADF81850ADF81440B6
:101AB0006020ADF804000020ADF80E000120ADF864
:101AC000060008A91448FFF790F905A94FF08040D7
:101AD00000F042FE01A94FF0804000F037FD01A95F
:101AE0004FF0804000F092FD01A94FF0804000F0DF
:101AF000E7FD0821C80600F0D9FD0821C80600F05E
:101B000077FD0821C80600F019FE0121880700F0C2
:101B1000F6FC09B030BD000000080140704700002D
:101B200070B5002100230F22C47804B3154C24683B
:101B300004F4E064C4F5E064210AC1F10403CA407E
:101B4000447804FA03F184781440214309010E4CCF
:101B50000678A155047804F01F050124AC400578EF
:101B60006D11AD0005F1E025C5F8004109E00478EC
:101B700004F01F050124AC40044D0678761145F8A9
:101B8000264070BD0CED00E000E400E080E100E0E4
:101B900002490143024A1160704700000000FA0543
:101BA0000CED00E070B5002418E004F1B000002155
:101BB00000F0D5F90021084600F0D1F900211020ED
:101BC00000F0CDF9002505E00121002000F0C7F963
:101BD000681CC5B2802DF7DB601CC4B2082CE4DBA6
:101BE00070BD000010B54FF480710948FFF7DBF9B4
:101BF0004FF400710648FFF7D6F94FF4007104481E
:101C0000FFF7CFF94FF480710148FFF7CAF910BD13
:101C1000000C014010B54FF480710748FFF7C3F97D
:101C20004FF400710448FFF7BCF94FF4007102480B
:101C3000FFF7B9F910BD0000000C014010B54FF4DA
:101C400080710448FFF7AFF94FF480710148FFF746
:101C5000A8F910BD000C014008B50121092000F0D1
:101C600031FA01214348FFF74BF94FF44070ADF8CA
:101C7000000010208DF8030003208DF80200694653
:101C80003D48FFF7B2F84FF440713B48FFF78BF93E
:101C90004FF4C87000F062FF0021AE2000F05FF941
:101CA0000021084600F05BF90021102000F057F9F0
:101CB0000021402000F053F90021B02000F04FF93E
:101CC0000021812000F04BF90021FF2000F047F9AE
:101CD0000021A12000F043F90021A62000F03FF9E7
:101CE0000021A82000F03BF900213F2000F037F947
:101CF0000021C82000F033F90021D32000F02FF993
:101D00000021084600F02BF90021D52000F027F92A
:101D10000021802000F023F90021D82000F01FF9D5
:101D20000021052000F01BF90021D92000F017F94F
:101D30000021F12000F013F90021DA2000F00FF962
:101D40000021122000F00BF90021DB2000F007F940
:101D50000021302000F003F900218D2000F0FFF871
:101D60000021142000F0FBF80021AF2000F0F7F86C
:101D700008BD000000023000000C01402DE9F047D2
:101D80000546894616463446002C22DA6442642011
:101D900094FBF0F100FB11400A2190FBF1F0C7B277
:101DA0000A2094FBF0F100FB114000F0FF080D2227
:101DB0004946284600F03AF9691CC8B23A464946F5
:101DC00000F02AF8A91CC8B24246494600F024F89F
:101DD00020E0642094FBF0F100FB11400A2190FB0D
:101DE000F1F0C7B20A2094FBF0F100FB114000F0C3
:101DF000FF080B224946284600F018F9691CC8B2B2
:101E00003A46494600F008F8A91CC8B2424649467D
:101E100000F002F8BDE8F0872DE9F04105460F46D5
:101E2000164600BF05EB45014906080E394600F08D
:101E300015F800240BE006F1100101EB4101064A00
:101E400002EB4101085D012100F089F8641C062CB9
:101E5000F1DBBDE8F0810000F84D000870B50446E4
:101E60000D4605F1B000002100F079F8102141EA9B
:101E70001410002100F073F804F00F00002100F0AE
:101E80006EF870BD2DE9F04707460E46904699461C
:101E900000250024A8F12000C5B27F2F02DD002715
:101EA000B01CC6B2B9F1100F24D131463846FFF745
:101EB000D5FF002408E004EB0511194A505C01210C
:101EC00000F04DF8601CC4B2082CF4DB701CC1B2E9
:101ED0003846FFF7C3FF002409E004EB0511083181
:101EE0000F4A505C012100F03AF8601CC4B2082C83
:101EF000F3DB12E031463846FFF7B0FF00240AE07A
:101F000005EB4501074A02EB4101085D012100F0A4
:101F100026F8601CC4B2062CF2DBBDE8F087000096
:101F200020500008F84D00082DE9F04105460E4606
:101F300014461F460EE022783B4631462846FFF7FE
:101F4000A1FF05F10800C5B2782D02DD0025B01C07
:101F5000C6B2641C20780028EDD1BDE8F08170B5D0
:101F600004460D461DB1E0B200F04AF802E0E0B2CE
:101F700000F030F870BD00002DE9F04105462C4618
:101F80004FF480711248FFF70CF800261CE027463A
:101F900007F08007802F04D1B9000D48FFF703F840
:101FA00004E04FF400710A48FEF7FBFF6006040EE0
:101FB0004FF480710648FEF7F6FF4FF48071044835
:101FC000FEF7EFFF701CC6B2082EE0DBBDE8F08123
:101FD000000C014010B50446FFF704FE7820FFF71F
:101FE000CBFFFFF72BFE0020FFF7C6FFFFF726FE13
:101FF0002046FFF7C1FFFFF721FEFFF70BFE10BDE4
:1020000010B50446FFF7EEFD7820FFF7B5FFFFF7A8
:1020100015FE4020FFF7B0FFFFF710FE2046FFF748
:10202000ABFFFFF70BFEFFF7F5FD10BD2DE9F0410B
:1020300005460F46164600BF05EB45014906080E4A
:102040003946FFF70BFF002409E006EB4601064A7C
:1020500002EB4101085D0121FFF781FF641C062CA2
:10206000F3DBBDE8F0810000F84D000801460020D8
:10207000034A506820F44040084350607047000015
:102080000010024029B1064AD2690243044BDA61CA
:1020900004E0034AD2698243014BDA6170470000D1
:1020A0000010024029B1064A12690243044B1A612A
:1020B00004E0034A12698243014B1A617047000031
:1020C0000010024029B1064A92690243044B9A610A
:1020D00004E0034A92698243014B9A617047000011
:1020E0000010024029B1064AD2680243044BDA606C
:1020F00004E0034AD2688243014BDA607047000073
:102100000010024030B500210022002400232D4D94
:102110006D6805F00C0121B1042905D0082923D1EF
:1021200005E0294D056022E0274D05601FE0254DA3
:102130006D6805F47012234D6D6805F48034022536
:1021400005EB92421CB9214D554305600BE01D4D36
:102150006D6805F400351DB11C4D5543056002E066
:10216000194D5543056002E0174D056000BF00BFE3
:10217000144D6D6805F0F0010909154D6B5C05689B
:10218000DD4045600F4D6D6805F4E061090A104DB2
:102190006B5C4568DD4085600A4D6D6805F46051F3
:1021A000C90A0B4D6B5C4568DD40C560054D6D6827
:1021B00005F44041890B074D6B5CC568B5FBF3F531
:1021C000056130BD0010024000127A0000093D0098
:1021D000000000201000002070B50025002424E03D
:1021E00000BF40211348FEF7D3FE0028F9D032206B
:1021F00000F0DAFC40210F48FEF7CAFE01280DD19D
:1022000000BF40210B48FEF7C3FE0128F9D0C4F1FE
:10221000070101208840C0B2054304E0C4F1070172
:10222000012088408543601CC4B2082CD8DB2846B6
:1022300070BD0000000C014010B50446FEF752FDD1
:1022400040212448FEF7ADFE122000F087FC40211B
:102250002048FEF7A8FE1E2000F0A6FCFEF734FD85
:1022600040211C48FEF794FE80BB00BF4021194866
:10227000FEF78EFE0028F9D000BF40211548FEF77A
:1022800087FE0128F9D0FFF7A7FF2070FFF7A4FF12
:102290006070FFF7A1FFA070FFF79EFFE070FFF7EF
:1022A0009BFF2071FEF71EFD40210A48FEF77BFED2
:1022B000207861780844A1780844E17808442179BD
:1022C000884201D1012010BD0020FCE7FFE700207B
:1022D000F9E70000000C0140704710B500F002F86B
:1022E00010BD00000CB5002001900090334800683C
:1022F00040F480303149086000BF3048006800F485
:10230000003000900198401C0190009818B9019885
:10231000B0F5A06FF1D12948006800F4003010B189
:102320000120009001E0002000900098012843D196
:102330002348006840F01000214908600846006802
:1023400020F0030008600846006840F002000860C2
:102350001A4840681949486008464068486008467D
:10236000406840F4806048600846406820F47C1073
:1023700048600846406840F4E81048600846006835
:1023800040F08070086000BF0C48006800F00070EA
:102390000028F9D00948406820F003000749486048
:1023A0000846406840F00200486000BF03484068AB
:1023B00000F00C000828F9D10CBD0000001002400C
:1023C00000200240042808D14FF0E021096941F0C3
:1023D00004014FF0E022116107E04FF0E0210969AC
:1023E00021F004014FF0E0221161704710B5084858
:1023F000006810B102F054FA08E00648D0E9003055
:102400005A1C40F100000349C1E9002010BD000042
:1024100000010020E800002010B51348006840F0DB
:1024200001001149086008464068104908400E49FB
:102430004860084600680E4908400B490860084695
:10244000006820F4802008600846406820F4FE0000
:1024500048604FF41F008860FFF73FFF4FF00060B7
:102460000449086010BD0000001002400000FFF8A1
:10247000FFFFF6FE08ED00E010B50121054800F071
:102480004AF828B10121034800F036F800F07CFC3E
:1024900010BD0000000400407FB505460C46012138
:1024A0000220FFF7EFFDADF80850ADF80440002022
:1024B000ADF80A00ADF8060001A90E4800F04CF98D
:1024C000012211460B4800F037F81D208DF800005E
:1024D00006208DF8010000208DF8020001208DF803
:1024E00003006846FFF71CFB0121024800F007F8D3
:1024F0007FBD000000040040CA430282704721B142
:10250000028842F00102028004E002884FF6FE7366
:102510001A400280704730B5024600200023002494
:10252000158A05EA0103958905EA010413B10CB186
:10253000012000E0002030BD1AB183890B43838164
:1025400002E083898B4383817047000070B50024CB
:1025500000220023058C4FF6EF7635400584028C6F
:102560008388048B48F6FF752C404FF6FF452C40BE
:102570000D884FF6FF7606EA05252C434FF6DF75EA
:102580002A400D8906EA05152A434D8806EA0515F5
:102590002A43154DA84202D0144DA8421DD14FF632
:1025A0007F752A404D894FF6FF7606EA05152A43C6
:1025B0004FF6BF752A408D8806EA05152A434FF667
:1025C000FF352B404FF2FF752B408D8906EA8505BC
:1025D0002B43CD8906EA85052B4383800483CD8870
:1025E0000587028470BD0000002C014000340140CA
:1025F0000A460021018B4FF2FF7319404FF6FF731B
:1026000003EA0223194301837047000070B50024D8
:1026100000220023058C4FF6FF6635400584028CAE
:102620008388848B4FF68F752C404FF6FC752C40B9
:102630000D882C434FF6FF552A400D894FF6FF7643
:1026400006EA05252A434D8806EA05252A43154D45
:10265000A84202D0144DA8421DD14FF2FF752A4066
:102660004D894FF6FF7606EA05252A434FF6FF35DA
:102670002A408D8806EA05252A434EF6FF752B4031
:102680004DF6FF752B408D8906EA05152B43CD8944
:1026900006EA05152B4383808483CD8885870284D1
:1026A00070BD0000002C0140003401400A460021AA
:1026B000818B4FF6F77319401143818370470000F7
:1026C00070B5002200230024058C4EF6FF763540BD
:1026D0000584038C8488828B48F6FF752A404FF668
:1026E000FF452A400D884FF6FF7606EA05252A4366
:1026F0004DF6FF752B400D8906EA05352B434D88B5
:1027000006EA05352B430B4DA84202D00A4DA842DC
:1027100008D14BF6FF752C408D894FF6FF7606EAFF
:1027200085152C4384808283CD88A0F84050038493
:1027300070BD0000002C0140003401400A46002119
:10274000818B4FF2FF7319404FF6FF7303EA0223A8
:102750001943818370470000002202881D4B984274
:102760000ED01D4B98420BD0B0F1804F08D01B4BC0
:10277000984205D01A4B984202D01A4B984204D185
:102780004FF68F731A404B881A43174B984207D065
:10279000164B984204D04FF6FF431A40CB881A4399
:1027A00002808B8883850B8803850A4B98420BD067
:1027B000094B984208D00E4B984205D00D4B9842D9
:1027C00002D00D4B984201D10B7A038601238382FC
:1027D00070470000002C014000340140000400401C
:1027E00000080040000C00400010004000140040B1
:1027F00000400140004401400048014010B540F253
:1028000025511D4800F0B9F810B31B4800F070F9CD
:10281000C4B21A48008800F40040C8B917480088BC
:1028200000F4804060B10A2C03D0002013490880D6
:1028300020E01248008840F400401049088019E068
:102840000D2C06D10D48008840F480400B490880CB
:1028500010E00A480088C0F30D0009490C540748ED
:102860000088401C0549088008460088C72801DD0B
:102870000020088010BD00000038014068000020E2
:102880006C01002008B540F22551074800F075F8AA
:1028900040B1054800F02CF9C0B200900121684613
:1028A00000F038FA08BD00000048004021B18289DC
:1028B00042F40052828104E082894DF6FF731A408F
:1028C0008281704710B504462048844209D1012115
:1028D0008803FFF707FC00214FF48040FFF702FC5C
:1028E00032E01B48844209D101214804FFF7DAFB9A
:1028F00000214FF40030FFF7D5FB25E01548844256
:1029000009D101218804FFF7CDFB00214FF480207D
:10291000FFF7C8FB18E01048844209D10121C80420
:10292000FFF7C0FB00214FF40020FFF7BBFB0BE0DB
:102930000A48844208D101210805FFF7B3FB0021B2
:102940004FF48010FFF7AEFB10BD000000380140CF
:102950000044004000480040004C0040005000404F
:1029600002460020B1F5007F00D100BF13880B4064
:102970000BB1012000E00020704770B50246002432
:1029800000230025002040F66A16B14200D100BFA6
:10299000C1F3421501F01F03012606FA03F3012DCE
:1029A00002D19689334006E0022D02D1168A3340C7
:1029B00001E0968A33400C12012606FA04F41688C8
:1029C000344013B10CB1012000E0002070BDF0B51F
:1029D0000346002400260025002040F66A17B9426D
:1029E00000D100BF1846C1F3421401F01F060127B1
:1029F00007FA06F5012C01D10C3004E0022C01D1BC
:102A0000103000E014301AB107682F43076002E06D
:102A10000768AF430760F0BD2DE9F04786B0054673
:102A20000E460024A24600BFA1460027B08900B18F
:102A300000BF2F462C8A4CF6FF700440F0880443F8
:102A40002C82AC894EF6F3100440B08831890843DB
:102A5000718908430443AC81AC8A4FF6FF400440BF
:102A6000B0890443AC8201A8FFF74CFB1F488742A2
:102A700002D1DDF810A001E0DDF80CA0A88900F477
:102A8000004040B10AEBCA0000EB0A10316849006F
:102A9000B0FBF1F807E00AEBCA0000EB0A1031685E
:102AA0008900B0FBF1F86420B8FBF0F004012009C4
:102AB000642101FB1089A88900F4004040B1322054
:102AC00000EBC900B0FBF1F000F00700044308E0A0
:102AD000322000EB09106421B0FBF1F000F00F0090
:102AE00004432C8106B0BDE8F087000000380140A7
:102AF00001468888C0F308007047C1F3080282804D
:102B0000704700BFFEE730380A2801D20120704725
:102B10000020704700BF704710B56FF00400FFF74A
:102B200051FC0A4800680A49B0FBF1F009490870F5
:102B30000846007800EB4001C1EBC0104FF6FF7172
:102B400001EAC0000449088010BD00004C000020CC
:102B500000127A0060000020620000200146114A45
:102B600012884A434FF0E0235A6100229A611A46C4
:102B7000126942F001021A6100BF4FF0E0221069B1
:102B800000F001021AB100F48032002AF5D04FF0B3
:102B9000E022126922F001024FF0E0231A610022C4
:102BA0009A617047620000200146114A12784A4338
:102BB0004FF0E0235A6100229A611A46126942F0EE
:102BC00001021A6100BF4FF0E022106900F001021B
:102BD0001AB100F48032002AF5D04FF0E0221269D9
:102BE00022F001024FF0E0231A6100229A6170473F
:102BF0006000002001B581B000200090694601AA64
:102C00005078087010784870BDF800000CBD0000C6
:102C100000BF054A128802F04002002AF9D0C2B271
:102C2000014B1B1D1A8070470038014001480068A5
:102C3000704700007000002010B504462CB907A0B2
:102C4000FDF758FB4FF0FF3010BD002020606060A2
:102C5000FF20207060700020F6E700004552523AD5
:102C60002067697A50726F746F636F6C4865616436
:102C7000496E6974206865616420697320656D70B0
:102C80007479200A0000000010B5024600240023D9
:102C900002B109B9002010BD022303E0D05C20443A
:102CA000C4B25B1C481E9842F8D82046F3E70000E7
:102CB00070B504460D462CB90FA0FDF71BFB4FF075
:102CC000FF3070BD22211248FDF705FD2A4621463E
:102CD0000F48801CFDF780FC0D484138A0F85D507E
:102CE000012180F84210FFF7A1FF09494139C1F8DD
:102CF0005F000020E5E700004552523A206461740D
:102D00006120697320656D707479200A00000000ED
:102D10007502002070B504460D46002624B90AA0AD
:102D2000FDF7E8FA701E70BD2A4621460E4801F0F4
:102D3000FAFE0646AE4205D00CA0FDF7DBFA4FF0D6
:102D4000FF30F0E73046EEE74552523A2067697AA5
:102D500050757444617461206275662069732065E2
:102D60006D707479200A0000640300204552523AC5
:102D7000204661696C656420746F207262577269C5
:102D80007465200A0000000002480068401C0149E8
:102D9000086070477000002010B534200A490860B0
:102DA0000A48C860084601F0B3FE18B908A0FDF74C
:102DB000A1FA02E00BA0FDF79DFA4FF498710E48BE
:102DC000FDF789FC10BD000064030020740300209F
:102DD00072624372656174652053756363657373D2
:102DE000200A000072624372656174652046616961
:102DF0006C64200A000000003402002030B587B067
:102E000005460024062D7CD2DFE805F003305F90F4
:102E1000BDEA01A8FFF710FF0B208DF808008B48D2
:102E200090F83910D0F83900401C884AC2F83900AF
:102E3000C8B28DF809000520FFF7DCFEADF80600EA
:102E4000092101A8FFF720FF8DF80C00092101A836
:102E500001F0B6FE0446002C03DA21467CA0FDF703
:102E600049FA092101A8FFF723FFEAE004A8FFF7C8
:102E7000E3FE09208DF81400744890F83910D0F85A
:102E80003900401C714AC2F83900C8B28DF81500EB
:102E90008DF818500620FFF7ADFEADF812000A219C
:102EA00004A8FFF7F1FE8DF819000A2104A801F02B
:102EB00087FE0446002C03DA214665A0FDF71AFAC6
:102EC0000A2104A8FFF7F4FEBBE004A8FFF7B4FE54
:102ED00009208DF814005D4890F83910D0F83900B9
:102EE000401C5A4AC2F83900C8B28DF815008DF856
:102EF00018500620FFF77EFEADF812000A2104A844
:102F000000E09AE0FFF7C0FE8DF819000A2104A83E
:102F100001F056FE0446002C03DA21464CA0FDF7D2
:102F2000E9F90A2104A8FFF7C3FE8AE001A8FFF728
:102F300083FE13208DF80800444890F83910D0F82B
:102F40003900401C414AC2F83900C8B28DF8090066
:102F50000520FFF74FFEADF80600092101A8FFF795
:102F600093FE8DF80C00092101A801F029FE04460A
:102F7000002C03DA214636A0FDF7BCF9092101A88F
:102F8000FFF796FE5DE001A8FFF756FE15208DF8CD
:102F900008002E4890F83910D0F83900401C2B4A10
:102FA000C2F83900C8B28DF809000520FFF722FEEB
:102FB000ADF80600092101A8FFF766FE8DF80C00A8
:102FC000092101A801F0FCFD0446002C03DA21468A
:102FD0001FA0FDF78FF9092101A8FFF769FE30E076
:102FE00001A8FFF729FE29208DF80800174890F85E
:102FF0003910D0F83900401C144AC2F83900C8B260
:103000008DF809000520FFF7F5FDADF80600092150
:1030100001A8FFF739FE8DF80C00092101A801F085
:10302000CFFD0446002C03DA214609A0FDF762F922
:10303000092101A8FFF73CFE03E00CA0FDF75AF9B7
:1030400000BF00BF204607B030BD000034020020A2
:103050004552523A20756172742077726974652006
:103060006572726F72202564200A00004552523A40
:10307000204366674D6F6465206572726F72210A26
:1030800000000000002001E0411CC8B20A28FBDB60
:103090007047000070B50446002520E004F0800071
:1030A00018B180200F49086003E080200D49091DF8
:1030B0000860FFF7E7FF40200A490860FFF7E2FFDA
:1030C00040200849091D0860072D02D18020091FF2
:1030D00008606006040EFFF7D5FF681CC5B2082D16
:1030E000DCDB70BD1008014010B580200949086084
:1030F00040200860FFF7C6FF80200649091D0860D0
:10310000FFF7C0FF40200349091D0860FFF7BAFF21
:1031100010BD00001008014010B58020054908606E
:103120004020091F0860FFF7ADFF80200149091FFB
:10313000086010BD1408014010B580200C490860DB
:10314000FFF7A0FF40200A490860FFF79BFF0848EF
:103150000838006800F0800008B1012400E0002475
:1031600040200349091D0860FFF78CFF204610BD71
:103170001008014010B5FDF76FFFFDF762FD002458
:10318000FDF790FC044605A0FDF7B4F814B108A0C3
:10319000FDF7B0F8FEF7C4F9002010BD7465737434
:1031A00020626567696E6E696E670D0A0000000037
:1031B0004C4F53204372656174207461736B2066B9
:1031C00061696C65645F3030310D0A0010B50C2305
:1031D0000EA200211920FEF7A7FE0C230EA2032148
:1031E0000020FEF7A1FE0C230EA205210020FEF711
:1031F0009BFE0C230EA204210020FEF795FE0C235B
:103200000DA206210020FEF78FFE10BD3C666C6FFC
:10321000776572706F743E0074656D70657261746D
:103220007572650068756D696469747900000000E5
:103230006C69676874000000736F696C00000000BF
:1032400030B585B00446254614216846FDF765FA79
:103250006946204600F022FA012801D105B030BDB0
:1032600000BFFBE730B54C09031D03EB8402036884
:103270008B4200D830BD01F01F050124AC4013681B
:10328000A343136000BFF5E7F0B5034618681F308D
:103290004609191D0025002219E00868401C00B9E4
:1032A00013E00868C44301E064086D1C002CFBD1E6
:1032B0006F1E4FF0010C0CFA07FC086840EA0C0086
:1032C000086005EB4210401EF0BD521C091DB242C1
:1032D000E3D34FF0FF30F7E710B50246106888429D
:1032E00001D8002010BD4B09101D50F8230001F03B
:1032F0001F040123A340184008B10120F2E7002079
:10330000F0E701460868704770B505460C462C602A
:1033100004F11F00C108281DFDF7FFF904F01F008C
:1033200040B104F01F014FF0FF3088406209291DB1
:1033300041F8220070BD00002DE9F05F81460E4685
:103340000024A2464F4617B90020BDE8F09FFCF7C5
:103350008DFF8346F01C20F003067D6819E0686845
:10336000C0F38070A0B9686820F04040B0420FD32D
:103370003CB1606820F04040696821F040418842DB
:1033800006DD2C46606820F04040B04200D133E0BA
:103390002D68002DE3D14CB900BF30A0FCF7AAFF87
:1033A000314630A0FCF7A6FF00BF48E0606820F07F
:1033B0004040801B08281ED904F108008519686860
:1033C00020F0804068606068801B0838696860F39E
:1033D0001D0169602C602146384600F051F9804695
:1033E000B8F1000F01D17D6001E0C8F800506068BD
:1033F00066F31D00606000BF606820F00040606000
:10340000606820F0804000F18040606004F1080AAC
:103410002048016806F1080008441E490860084673
:1034200000681D490968884203D91A4800681A498A
:1034300008601A480068401C1849086000BF786896
:10344000406820F04040B0F5806F02DA3846FFF760
:10345000F7FE5846FCF712FF504676E75B4552529E
:103460005D20000074686572652773206E6F74209C
:10347000656E6F7567682077686F6C6520746F2064
:10348000616C6C6F63202578204279746573210A22
:1034900000000000380100203C0100203001002025
:1034A0002DE9F04780460F4614460025B8F1000F7D
:1034B00005D027B1042C02D3601E204010B100209B
:1034C000BDE8F0873819A0F1040949464046FFF7E6
:1034D00033FF054675B1601E2844611E20EA0106CF
:1034E000B54200D107E0A6EB050A4AF0004A46F8CB
:1034F00004AC354600BF2846E2E700002DE9F05F46
:1035000081460E464FF0010A4D4605B116B901201D
:10351000BDE8F09F56F8048C08F0004018B128F080
:103520000048A6EB08062868B04203D8686808304F
:10353000B0420AD200BF38A0FCF7DCFE314638A00A
:10354000FCF7D8FE00BF0020E2E7FCF78FFE8346C1
:10355000A6F108046068C0F3807088B12868A042B2
:1035600011D02068296888420AD321686868083029
:10357000814205D82846216800F082F8A04202D096
:103580004FF0000A43E0606820F0804060606068AF
:1035900020F04040083027490968884208D8606810
:1035A00020F04040083023490968081A2149086082
:1035B00000E02468206828B120684068C0F380706B
:1035C0000028F6D00BE06168786808300144606834
:1035D00061F31D0060606868B84200D16C602146EC
:1035E000284600F04DF8071E04D07868C0F38070BC
:1035F0000028E8D02146284600F042F8071E00D0F7
:103600003C600D480068401C0B49086000BF5846EC
:10361000FCF734FE50467BE75B4552525D200000CC
:1036200030782578206F7574206F662072616E6720
:1036300065210A0038010020340100202DE9F04105
:1036400005460E462F460FB1582E02D80020BDE881
:10365000F08131462846FDF73EF8BE6005F1500482
:103660003C607C60606820F08040606000202060EA
:10367000A6F15800616860F31D0161600120E6E772
:1036800002465068884201D100207047486820F007
:10369000404301F108001844F7E7000070B5044604
:1036A0000025002223460BB9012070BD09B9012075
:1036B000FBE75A6809E05068C0F3807020B1506899
:1036C00020F04040083005441268002AF3D1986881
:1036D000A84201D20120E8E74D6098680860D1E96E
:1036E0000006801B886004480068C86003480068C2
:1036F00008610020D9E700003001002034010020DB
:1037000000BFFEE710B586B018216846FDF705F842
:103710000A4800904FF4A060039009A004901F2075
:10372000ADF8040069460948FDF71CFF044614B1D2
:10373000204606B010BD0020FBE70000013700085E
:1037400049646C65436F726530303000B40000200E
:1037500000BFEFF30580704710B500240348044A0A
:10376000111AFDF791FD0446204610BDB80B00204C
:103770000050002070B51448FDF73BFD4FF4B471C4
:1037800012480068FDF746FD1149086008460068C8
:1037900008B9104870BD002411E004EB44000C4946
:1037A000096801EBC0056C600020287005F108066F
:1037B000054908683146FDF7E2FC00BF641C0F2C88
:1037C000EBD30020E6E70000100100207800002085
:1037D0000C010020001D000270B5044600BFD4E9B2
:1037E00000010860D4E9001048600020606020609B
:1037F00000BFA4F12805E988084A126802EBC1005D
:10380000FDF7DCFC40B1A9794FF00040C840044905
:10381000096881430248016070BD00007C000020FF
:103820008000002070B504460D460E49096801EB82
:10383000C500FDF7C3FC38B14FF00040E8400A492D
:1038400009680843084908600648006800EBC5019C
:10385000086842686260206042681460446000BF8B
:1038600000BF70BD7C0000208000002070B50024E7
:1038700000254FF4807529460C480068FDF7CAFC06
:103880000B4908600846006800B970BD0020044676
:1038900008E00749096801EBC4004060006000BF10
:1038A000601C0446202CF4D300BFEEE77800002013
:1038B0007C000020014600200022074B1B6803EB20
:1038C000C1035A6801E0401C5268034B1B6803EBBC
:1038D000C1039342F7D170477C00002000210748C4
:1038E000006848B105480068B0FA80F104480068F3
:1038F00000EBC100406870470020FCE7800000201A
:103900007C0000202DE9F04704460E4617469846F5
:103910004FF00009CA4606F0030020B1012810D07C
:10392000032828D119E0B4F80CA0A089401CE18834
:10393000884202D10020A08102E0A089401CA08121
:1039400023E0A08918B9E088401EA08102E0A08988
:10395000401EA081B4F80CA017E0B4F80EA0E089D6
:10396000401CE188884202D10020E08102E0E08929
:10397000401CE08109E000BF1BA0FCF7BBFC1CA0C1
:10398000FCF7B8FC00BFBDE8F08700BF21892068C4
:103990000AFB010506F0040040B106F0010010B971
:1039A000286838601DE0386828601AE006F00100D9
:1039B00058B92089284450F8049C4A46294638467C
:1039C000FCF70AFEC8F800900BE039462846D8F804
:1039D0000020FCF701FE20892844D8F8001040F8A8
:1039E000041C00BFCFE700005B4552525D20000081
:1039F000696E76616C6964207175657565206F709C
:103A000065726174652074797065210A0000000098
:103A100070B54FF4DC7116480068FDF7FBFB1549E3
:103A200008600846006808B9134870BD4FF4DC719F
:103A300010480068FCF771FE1048FDF7DDFB00241C
:103A400012E004EB440000EBC4000A49096801EBF2
:103A500080056C8105F11C06084908683146FDF7B0
:103A600095FB00BF601C84B20A2CEADB0020DCE777
:103A70007800002018010020010600021C0100202F
:103A80002DE9FF4F83B081460E469846DDF840A0F1
:103A90000020019006F00105FCF7E8FB029009EB1D
:103AA000490000EBC9005449096801EB8004A08873
:103AB00010B95248019099E006F0010048B92089F8
:103AC000001FD8F80010814203D24C4815300190F5
:103AD0008CE006F0010048B12089001FD8F80010E2
:103AE000814203D945480B3001907FE004F110007A
:103AF00030F8150090BBBAF1000F09D106F00100B3
:103B000010B93E48133001E03C480C3001906DE0A4
:103B10003B48008818B13948001F019066E03948D9
:103B2000076804F1140101EBC50052464FF400513F
:103B300000F06CFE0298FCF7A1FBFDF7D1FCFCF74E
:103B400095FB0290387900F0400090B1B88820F0E1
:103B50004000B8802948C01E019047E0FFE704F10B
:103B6000100030F81500401E81B204F1100020F85A
:103B70001510434631462046059AFFF7C3FE0DB99E
:103B8000012200E0002204F1140101EBC200FDF764
:103B900025FBC0B90DB9012100E0002104F114009A
:103BA00000EBC1004068A0F1280B4FF400515846CB
:103BB00000F052FE0298FCF761FBFDF791FC00203B
:103BC00007B0BDE8F08F0DB9012100E0002104F13C
:103BD000100030F81100401C81B20DB9012200E044
:103BE000002204F1100020F8121000BF0298FCF728
:103BF00045FB0198E4E70000180100200A060002D6
:103C0000AC000020A40000202DE9F04105460E463E
:103C100014461F460A2D02D30A48BDE8F08106B1BA
:103C200014B90848401CF8E7206810B90548801C02
:103C3000F3E72FB1FFF78CFD10B102480A30ECE733
:103C40000020EAE70E0600022DE9F04104460D4689
:103C500016461F460A2C02D30A48BDE8F08115B962
:103C60000848001DF9E7306810B90648401DF4E720
:103C70002FB1FFF76DFD10B10248401FEDE70020A6
:103C8000EBE700000E0600021020014908607047B3
:103C9000B000002010B5FCF7F4FA10BD70B5134861
:103CA000FDF7ADFA4FF4A07111480068FDF7B2FAC4
:103CB000104908600846006808B90F4870BD002424
:103CC00010E00C48006800EB0415EC800020288010
:103CD00005F10806054908683146FDF75EFA00BFA0
:103CE000601C84B2142CECDB0020E7E724010020E8
:103CF000780000202C0100200007000230B50446A7
:103D0000A068FFF7C1FA0546002D01DA002030BD9A
:103D1000D4E9001001FB0500F9E72DE9F041044664
:103D20000D46A8466068A8EB00062068B6FBF0F7D1
:103D30002068B6FBF0F100FB116048B9A068FFF7FE
:103D4000E0FAB84204D93946A068FFF7C5FA10B9BD
:103D50000020BDE8F0813946A068FFF783FA012012
:103D6000F7E72DE9F04781460E4615461F4607F155
:103D70001F00042101EBD00808EB0500401E691E5E
:103D800020EA01087019401E20EA010606FB07FA26
:103D900008F10C0000EB0A014846FFF7CDFA044693
:103DA00054B1266004F10C00A060A068404460603B
:103DB0003946A068FFF7A8FA2046BDE8F08702461A
:103DC0004DF6DE60108091700020D070101D70479D
:103DD000014601F1100070472DE9F04780460E467C
:103DE00000274046FFF7F4FF0546B9460024802E21
:103DF00002D90020BDE8F087002439E005EB04106B
:103E00000068B04233D3FCF731FA824605EB041068
:103E1000806805EB04114968884204D35046FCF7DA
:103E20002DFA0020E6E705EB0410C06820B95046E3
:103E3000FCF724FA0020DDE705EB0419D9F80C00A3
:103E4000FFF75CFF07466FB105EB041001683846C9
:103E5000FFF7B5FF074605EB04108068401C05EB33
:103E6000041188605046FCF709FA3846C2E7641C22
:103E7000042CC3D30020BDE72DE9F05F81460F4637
:103E80004846FFF7A5FF05464FF0000A00243E1FF5
:103E900030884DF6DE61884202D00020BDE8F09FF8
:103EA00000241FE0B07805EB04110968884218D897
:103EB000FCF7DCF9834605EB04183146D8F80C0012
:103EC000FFF72BFF012807D1824605EB041080681D
:103ED000401E05EB041188605846FCF7CFF95046A8
:103EE000DCE7641C042CDDD30020D7E72DE9F04784
:103EF00081464846FFF76CFF054600240027002650
:103F0000A04600BF20E0102000FA04F64001B0FBFC
:103F1000F6F805EB0410066005EB0410C0F8048009
:103F2000002005EB0411886005EB0410C06808B19F
:103F30007F1C08E043460422311D4846FFF711FF6D
:103F400005EB0411C860641C042CDCD317B90120F4
:103F5000BDE8F0870020FBE72DE9F84340211F482A
:103F6000FCF7DBFB00201E4908604FF4E078414677
:103F70001C480068FDF74EF9044614B91A48BDE81C
:103F8000F88341462046FCF7C8FB184804601848EF
:103F900004600020208125461C34012605E026818E
:103FA0002C602546701C86B21C34102EF7DB0820CE
:103FB0000023104A102100901846FDF7EBF9074640
:103FC00017B10948001DDAE700F03CF9074617B1C0
:103FD0000548401DD3E70020D1E70000BC030020C6
:103FE00090000020780000200703000288000020D5
:103FF0008C000020840000202DE9F84F01460026A7
:1040000000204FF0FF3A471E00974FF0100CE0469B
:1040100081460F69CF600F894FEAE77B07EB1B7B77
:104020004FEA2B1BA7EB0B1B1FFA8BF4714F57F8B2
:10403000247007F06047B7F1C04F7CD16D4F57F83F
:10404000247047F00047DFF8ACB14BF824705F46AE
:1040500057F8247027F07F43002532E0654F57F86A
:10406000257027F07F424AB1A54207D0614F57F82B
:10407000257007F04047B7F1404F00D01FE09A424B
:104080000CD3B2FBF3F703FB17273FB9B2FBF3F7EF
:10409000574513D2B2FBF3FAAC460FE09A420DD269
:1040A000B3FBF2F702FB173747B9B3FBF2FB009FF4
:1040B000BB4503D2B3FBF2F70097A84600BF6F1CC5
:1040C000BDB2102DCADBBCF1100F24D04A4F3868A6
:1040D00010E0C768B9440789CCEBCC0BDFF81CE1D2
:1040E000DEF800E00EEB8B0BBBF808B05F4500D1AB
:1040F00002E000680028ECD100BF80B30769A7EB9D
:104100000907D1F810B0B7FBFBFE0BFB1E77ABEB3A
:104110000707CF6047E0B8F1100F44D00027CF6009
:10412000C8EBC807DFF8D4B0DBF800B00BEB8706AC
:1041300030684DE0FFE72F4F57F8247007F06047D5
:10414000B7F1804F2FD12B4F57F8247047F000471D
:10415000DFF8A0B04BF82470274F38681AE022E04F
:10416000D0F810B0D1F810E0F34512D107894FEA2A
:10417000E77B07EB1B7B4FEA2B1BA7EB0B1BDFF847
:1041800074E05EF82BB00BF0404BBBF1404F00D118
:1041900002E000680028E3D100BF20B10027CF6013
:1041A0000646006814E0144F38680DE0C768D1F87F
:1041B0000CB05F4500D909E0CF68D0F80CB0A7EB90
:1041C0000B07CF60064600680028EFD100BF00BF94
:1041D000086028B1C768D1F80CB0A7EB0B07C7601F
:1041E00016B9054F396000E0316002270F71BDE854
:1041F000F88F0000BC030020900000208800002001
:104200000EB50820009000BF4FF0FF336A4601A9A9
:104210000B480068FDF72EF90446002CF4D10098F5
:104220000828F1D101980028EED0FDF7EDFB0546F6
:10423000DDE901108847FDF7E7FB401BE4E70000DC
:104240008400002010B586B018216846FCF765FA96
:10425000084800904FF43470039007A004900020A9
:10426000ADF8040069460748FDF77CF9044620468E
:1042700006B010BD014200085377745F5461736B40
:1042800000000000B80000201CB51D48046832E0A2
:104290001B4920680860A0690090606901900023B4
:1042A0000822694617480068FDF7FFF86079A0B951
:1042B000204600F029F820894FF6E071884203DAA1
:1042C00020891030208114E02089C11700EB117182
:1042D0000911A0EB011121810BE06079012803D1C4
:1042E0002046FFF789FE04E06079022801D1012011
:1042F00020710348046814B1E0680028C8D01CBDD0
:10430000900000208400002010B509490968016070
:10431000074908600021017100220189CB1701EBD8
:1043200013731B11A1EB0313024C44F8232010BD9F
:104330008C000020BC03002010B50748006848B17D
:1043400005480068C068401E03490968C86008B98C
:10435000FFF79AFF002010BD900000202DE9F047E4
:104360000446884608F01F074FEA581907B101E0D4
:10437000A9F10109A06B00F0784040EA0900A063B0
:1043800025488088074407F01F07A06B67F3DF60AC
:10439000A0632148006800EBC7067068B04205D1F1
:1043A00004F130013046FCF72DFF33E07068A0F1D6
:1043B000300500BFA86B20F07840A16B21F0784158
:1043C00088420CD8A06B20F07840A96B21F078418E
:1043D000401AA16B01F078410843A0630CE0A86B80
:1043E00020F07840A16B21F07841401AA96B01F0D0
:1043F00078410843A86306E0686BA0F1300505F139
:104400003000B042D6D100BF04F1300105F13000D8
:10441000FCF7F8FEBDE8F087D400002070B5054633
:10442000C5EBC50000EB40000649096801EB8004BC
:104430006169206A88470020034908802069FDF7E8
:10444000DDF970BDA0000020AC00002072B600BFF6
:10445000FEE7000070B540480068401C542100FB96
:1044600001F631463D480068FCF7D4FE3C4908603F
:104470000846006808B93B4870BD314638480068B6
:10448000FCF74BF93848FCF7B1FE3848FCF7AEFEB4
:104490003748FCF7ABFE002420E00120C4EBC40148
:1044A00001EB41012E4A126802EB81018880C4EBC6
:1044B000C40000EB40002A49096801EB8000046158
:1044C000C4EBC40000EB4000254A126802EB8000F8
:1044D00000F128012548FCF795FE641C0F2CDCD95F
:1044E00024480021016041601B480068C0EBC00007
:1044F00000EB40001A49096801EB80001D49086083
:104500000846006804611120096888802020194944
:104510000968C880FFF7AAF94FF4807631460F4842
:104520000068FCF777FE05460DB90E48A4E7314652
:104530002846FCF7F2F81048056000200E498880F4
:10454000002404E02846FCF751FE641C0835202CAA
:10455000F8D3002090E70000B00000207800002091
:10456000A000002000020003BC000020C4000020C6
:10457000CC000020A4000020D400002010B54FF48F
:10458000AB710648FCF7A7F80A20044948700448B4
:104590000449086000200449086010BDFC030020A5
:1045A00089460008E0000020E40000202DE9F041E9
:1045B000002734498988481CC11700EBD161491193
:1045C000A0EB41112F4A918010460068114689885E
:1045D00000EBC1056868A84201D1BDE8F0816868B8
:1045E000A0F1300443E0A688A06B20F0784018B119
:1045F000A06B401EA0633EE004F13000FCF7D4FD48
:1046000006F0080058B1A08820F00800A08004F14E
:104610002800FCF7C9FD0020A061E06117E006F466
:10462000806020B1A08820F48060A0800FE006F4B4
:10463000005040B104F12800FCF7B6FDA08820F43A
:104640000050A08003E0A08820F02000A08006F0A9
:10465000020048B9A08840F00400A080E18804F17D
:104660002800FFF7DFF801276868A0F1300404F1A3
:104670003000A842B7D100BF0FB1FCF731FF00BF37
:10468000ABE70000D400002010B53B480068C068CC
:104690000068B0F1CC3F0DD000BF38A0FBF72AFE78
:1046A00035480068026934480068416A35A0FBF764
:1046B00021FE00BF3048406800682F494968C9683A
:1046C00088420BD92C484068C0682B4949688968E2
:1046D000084429494968096888421BD200BF27A0BD
:1046E000FBF708FE24484068026923484068416A95
:1046F0002EA0FBF7FFFD00BF00BF20A0FBF7FAFDD7
:104700001D484068C2681C484068016830A0FBF73B
:10471000F1FD00BF18484068008A81B2394802782C
:10472000801C20F81210144A5268516A821E1378B5
:10473000163202EB43102022FBF74EFF00213148D6
:104740000278163000EB4210C1772E480078401CEA
:10475000C0B22C4908700A2806D10020087008460B
:10476000407840F0800048702748006810B1264823
:104770000068804710BD0000A40000205B45525235
:104780005D20000043555252454E54207461736BB6
:104790002049443A2025733A256420737461636B81
:1047A000206F766572666C6F77210A00484947482A
:1047B000455354207461736B2049443A2025733A61
:1047C0002564205350206572726F72210A00000028
:1047D00048494748455354207461736B20537461B2
:1047E000636B506F696E7465723A2030782578205B
:1047F000546F704F66537461636B3A20307825783C
:104800000A000000FC030020E40000202DE9F04134
:1048100007460E4615460F48046804F12800FEF7C7
:10482000DBFFA08820F00400A08004F12808A08805
:104830003043A08041463846FCF7E4FC681C38B1A0
:10484000A08840F04000A08029462046FFF786FD62
:10485000BDE8F081A400002070B504460D4604F1C7
:104860002800FCF7A1FCA088A843A080207900F0D4
:10487000400030B1204600F081F8A08820F04000D0
:10488000A080207900F0020040B9A08840F0040028
:10489000A080E18804F12800FEF7C4FF70BD00008D
:1048A00010B50848D0E900305A1C40F10000054915
:1048B000C1E9002000F086F8FFF778FEFFF73CFD25
:1048C00010BD0000E800002070B52548006828B140
:1048D00000BF23480068B0F57A7F01D2214870BD3F
:1048E0001F4800684FF47A71B0FBF1F01E49086070
:1048F00000211E4A11605160194800684FF47A7215
:10490000B0FBF2F1B1F1807F01D301201DE021F075
:104910007F40401E4FF0E022506150170F220028C8
:1049200007DA1407260E124C00F00F052D1F6655EE
:1049300003E01407250E0F4C255400BF00204FF054
:10494000E02290610720106100200346012B02D174
:104950000448801CC3E70120074908600020BEE727
:104960004C00002000040002F8000020E8000020B5
:1049700018ED00E000E400E0000100202DE9F04126
:104980000446A06BC70E0E48006800EBC706606BBC
:10499000B0420ED0606BA0F13005A86B20F07840DB
:1049A000A16B21F078410844A96B01F078410843DC
:1049B000A86304F13000FCF7F7FBBDE8F0810000CC
:1049C000D400002010B50F4800680F4909688842DC
:1049D0000BD00D4800680B4908600846C1880B4899
:1049E00000880844401E0749888006488188074897
:1049F000008880B2814204D1002002490860FCF79F
:104A0000B9FF10BD04010020A4000020E800002030
:104A10000020024908600A20C88070470401002075
:104A20002DE9F04106460F4615464FF0CA32394689
:104A30002846FBF748FE4FF0CC302860E819A0F17B
:104A400044044FF0043020604FF0053060604FF0B8
:104A50000630A0604FF00730E0604FF00830206172
:104A60004FF0093060614FF01030A0614FF011300D
:104A7000E0610020206266624FF00130A0624000D9
:104A8000E0624FF0033020634FF01230606305485E
:104A9000A0630548E0634FF0807020642046BDE8C5
:104AA000F08100004D4400081D44000800B5024696
:104AB00012B94FF0FF3000BD50689168884201D1B3
:104AC0000020F8E750689168884203D290685168E6
:104AD000401AF0E7104600F014F851689368C91ABC
:104AE000401AE8E730B5044614B94FF0FF3030BD46
:104AF000204600F006F805462046FFF7D7FF281AA3
:104B0000F5E7014611B94FF0FF3070470868FCE740
:104B1000014611B94FF0FF307047C8684860C86857
:104B200088600020F8E72DE9F04104460F4615465D
:104B3000002604B11FB94FF0FF30BDE8F0812046D8
:104B4000FFF7D0FFA84202D86FF00100F5E76068D8
:104B5000A16888422AD82046FFF7D3FFA168E268FF
:104B6000891A461AB54213D8A0682A463946FBF777
:104B700033FDA0682844A0602046FFF7C2FFE1682B
:104B80000844A168884201D1E068A0602846D4E7C3
:104B9000A06832463946FBF71FFDE068A060AA1BFB
:104BA000B9192046FFF7BFFF3044C6E7A0682A4680
:104BB0003946FBF711FDA0682844A0602846BCE7F1
:104BC0002DE9F04105460E46002415B9601EBDE8EA
:104BD000F08100241BE0295D1D48FDF78EFF00BF1A
:104BE00040211B48FDF7BCFE0028F9D0022C0DD354
:104BF000285DFF280AD155211548FDF77EFF00BF2B
:104C000040211348FDF7ACFE0028F9D0641CB442E3
:104C1000E1D3FEF70BF80746324639460DA0FBF705
:104C200069FB00240DE0295D0FA0FBF763FB022C5C
:104C300006D3285DFF2803D155210BA0FBF75AFBB3
:104C4000641CB442EFD30AA0FBF754FB3046BEE726
:104C5000004800404D435532576946695B2534642E
:104C60003A2534645D3A2000253032782000000077
:104C70000A00000010B586B0044601210420FDF7AB
:104C800021FA01218803FDF71DFA4FF40070ADF8F9
:104C9000140003208DF8160018208DF8170005A9C0
:104CA0001C48FCF7A2F84FF48060ADF81400042013
:104CB0008DF8170005A91748FCF797F80194002014
:104CC000ADF80800ADF80A00ADF80C00ADF8100022
:104CD0000C20ADF80E0001A90F48FDF79DFE012143
:104CE0000D48FDF7E3FD012240F225510A48FDF78A
:104CF0006EFE25208DF8000003208DF801000020B5
:104D00008DF8020001208DF803006846FCF708FFCB
:104D100006B010BD000801400038014010B586B053
:104D2000044601210820FDF7CDF901218804FDF793
:104D3000A9F92448FDF7C6FD4FF48060ADF81000D6
:104D400003208DF8120018208DF8130004A91E48C6
:104D5000FCF74BF84FF40060ADF8100004208DF81C
:104D6000130004A91848FCF740F800940020ADF89F
:104D70000400ADF80600ADF80800ADF80C000C20FA
:104D8000ADF80A0069460F48FDF746FE01210D48BF
:104D9000FDF78CFD012240F225510A48FDF717FE70
:104DA00027208DF8140006208DF8150000208DF8BE
:104DB000160001208DF8170005A8FCF7B1FE06B01B
:104DC00010BD000000480040000C014010B5132148
:104DD0000848FBF780FC0020064908704870C1F8BD
:104DE0000300C1F80700C1F80B008870C1F80F007C
:104DF00010BD0000A803002000000000000000001B
:104E0000002F000000000700070000147F147F142B
:104E100000242A7F2A1200626408132300364955B1
:104E2000225000000503000000001C224100000089
:104E300041221C000014083E08140008083E08081F
:104E4000000000A06000000808080808000060607A
:104E50000000002010080402003E5149453E0000B9
:104E6000427F4000004261514946002141454B319B
:104E7000001814127F10002745454539003C4A4967
:104E800049300001710905030036494949360006D9
:104E90004949291E00003636000000005636000041
:104EA00000081422410000141414141400004122BC
:104EB000140800020151090600324959513E007C94
:104EC0001211127C007F49494936003E414141227E
:104ED000007F4141221C007F49494941007F090967
:104EE0000901003E4149497A007F0808087F000017
:104EF000417F4100002040413F01007F08142241D2
:104F0000007F40404040007F020C027F007F040889
:104F1000107F003E4141413E007F09090906003EE5
:104F20004151215E007F091929460046494949310E
:104F30000001017F0101003F4040403F001F204031
:104F4000201F003F4038403F0063140814630007EF
:104F50000870080700615149454300007F41410046
:104F600000552A552A55000041417F0000040201E6
:104F700002040040404040400000010204000020C4
:104F800054545478007F4844443800384444442002
:104F900000384444487F00385454541800087E09AF
:104FA00001020018A4A4A47C007F08040478000077
:104FB000447D4000004080847D00007F1028440034
:104FC0000000417F4000007C04180478007C080445
:104FD000047800384444443800FC24242418001881
:104FE000242418FC007C080404080048545454206D
:104FF00000043F444020003C4040207C001C2040F6
:10500000201C003C4030403C004428102844001C38
:10501000A0A0A07C004464544C4414141414141430
:105020000000000000000000000000000000000080
:10503000000000F800000000000000333000000015
:1050400000100C06100C060000000000000000001C
:1050500040C07840C0784000043F04043F0404008E
:10506000007088FC08300000001820FF211E00009E
:10507000F008F000E018000000211C031E211E00B3
:1050800000F00888700000001E2123241927211039
:1050900010160E00000000000000000000000000DC
:1050A000000000E018040200000000071820400083
:1050B00000020418E0000000004020180700000073
:1050C000404080F0804040000202010F01020200D7
:1050D000000000F0000000000101011F01010100BB
:1050E000000000000000000080B070000000000020
:1050F00000000000000000000001010101010101A9
:10510000000000000000000000303000000000003F
:105110000000000080601804006018060100000014
:1051200000E010080810E000000F102020100F0011
:10513000001010F8000000000020203F2020000098
:1051400000700808088870000030282422213000F0
:1051500000300888884830000018202020110E00F8
:105160000000C02010F8000000070424243F2400A1
:1051700000F80888880808000019212020110E0076
:1051800000E0108888180000000F112020110E0088
:1051900000380808C83808000000003F0000000080
:1051A0000070880808887000001C222121221C0041
:1051B00000E010080810E0000000312222110F006A
:1051C000000000C0C00000000000003030000000FF
:1051D000000000800000000000008060000000006F
:1051E0000000804020100800000102040810200088
:1051F00040404040404040000404040404040400D3
:105200000008102040800000002010080402010067
:10521000007048080808F000000000303601000067
:10522000C030C828E810E0000718272423140B001A
:105230000000C038E0000000203C23020227382094
:1052400008F8888888700000203F202020110E0078
:10525000C03008080808380007182020201008006F
:1052600008F808080810E000203F202020100F0058
:1052700008F88888E8081000203F20202320180024
:1052800008F88888E8081000203F2000030000008C
:10529000C03008080838000007182020221E02002D
:1052A00008F808000008F808203F210101213F20EC
:1052B000000808F8080800000020203F2020000017
:1052C00000000808F8080800C08080807F00000007
:1052D00008F888C028180800203F20012638200040
:1052E00008F8080000000000203F202020203000A7
:1052F00008F8F800F8F80800203F003F003F2000C1
:1053000008F830C00008F808203F200007183F00C8
:10531000E01008080810E0000F10202020100F00F7
:1053200008F808080808F000203F210101010000EA
:10533000E01008080810E0000F18242438504F002F
:1053400008F8888888887000203F2000030C3020EF
:1053500000708808080838000038202121221C002D
:10536000180808F8080818000000203F2000000076
:1053700008F808000008F808001F202020201F005F
:105380000878880000C83808000007380E010000BF
:10539000F80800F80008F800033C0700073C030089
:1053A000081868808068180820302C03032C3020EF
:1053B0000838C800C83808000000203F200000005E
:1053C00010080808C83808002038262120201800B6
:1053D000000000FE020202000000007F404040008A
:1053E000000C30C000000000000000010638C000C2
:1053F00000020202FE000000004040407F0000006A
:10540000000004020202040000000000000000008E
:10541000000000000000000080808080808080808C
:105420000002020400000000000000000000000074
:1054300000008080808000000019242222223F206A
:1054400008F8008080000000003F112020110E00AD
:105450000000008080800000000E1120202011003C
:10546000000000808088F800000E112020103F20EE
:105470000000808080800000001F22222222130072
:10548000008080F0888888180020203F20200000BD
:105490000000808080808000006B94949493600072
:1054A00008F8008080800000203F210000203F207D
:1054B00000809898000000000020203F202000007D
:1054C000000000809898000000C08080807F00006D
:1054D00008F8000080808000203F24022D3020004A
:1054E000000808F8000000000020203F20200000F5
:1054F0008080808080808000203F20003F20003F0F
:105500008080008080800000203F210000203F201C
:105510000000808080800000001F202020201F00CD
:10552000808000808000000080FFA12020110E00FC
:105530000000008080808000000E112020A0FF80ED
:10554000808080008080800020203F21200001009A
:1055500000008080808080000033242424241900EF
:10556000008080E0808000000000001F20200000FC
:105570008080000000808000001F202020103F203D
:10558000808080000080808000010E3008060100CD
:1055900080800080008080800F300C030C300F0072
:1055A00000808000808080000020312E0E3120009D
:1055B000808080000080808080818E7018060100CD
:1055C00000808080808080000021302C22213000EB
:1055D00000000000807C020200000000003F40400C
:1055E00000000000FF00000000000000FF000000BD
:1055F0000002027C800000000040403F00000000EC
:105600000006010102020404000000000000000086
:1056100030313233343536373839414243444546E8
:1056200040305800303132333435363738396162E2
:1056300063646566403078000400000800000000E4
:105640000000000200010000100000006C5600087D
:105650000000002044010000280100088C560008CA
:1056600044010020740A000084010008412D010259
:105670000304040009180607080902040608134475
:0C56800001021D2084A24A04695001E4CC
:04000005080000ED02
:00000001FF
