:020000040800F2
:100000005009002099010008010F0008C10D0008E7
:100010004D0E0008510A0008931F00080000000060
:100020000000000000000000000000008917000828
:100030002D0B000800000000191500089D1800088D
:10004000B3010008B3010008B3010008B3010008C0
:10005000B3010008B3010008B3010008B3010008B0
:10006000B3010008B3010008B3010008B3010008A0
:10007000C90A0008B3010008B3010008B301000871
:10008000B3010008B3010008B3010008B301000880
:10009000B3010008B3010008B3010008B301000870
:1000A000B3010008B3010008B3010008B301000860
:1000B000B301000801190008B3010008B3010008EA
:1000C000B3010008B3010008B3010008B301000840
:1000D000B30100088D1C0008B3010008151D0008BD
:1000E000B3010008B3010008B301000800F002F8F2
:1000F00000F042F80AA090E8000C82448344AAF180
:100100000107DA4501D100F037F8AFF2090EBAE87D
:100110000F0013F0010F18BFFB1A43F0010318473B
:100120000C5600002C560000103A24BF78C878C145
:10013000FAD8520724BF30C830C144BF04680C60ED
:10014000704700000023002400250026103A28BF35
:1001500078C1FBD8520728BF30C148BF0B60704739
:10016000642900F06F80782900F0A8800020704793
:100170001FB51FBD10B510BD00F0B8FA1146FFF74E
:10018000F7FF04F007F800F0D6FA03B4FFF7F2FF28
:1001900003BC01F007FF00000948804709480047F9
:1001A000FEE7FEE7FEE7FEE7FEE7FEE7FEE7FEE727
:1001B000FEE7FEE704480549054A064B7047000084
:1001C000A1180008ED00000850030020500900208D
:1001D0005005002050050020704700000FB404496E
:1001E00010B503AA029800F027FA10BC5DF814FBC2
:1001F0004800002070B5044685690068C10601D535
:10020000302600E02026C00707D070BDD4E90121C8
:1002100030469047206A401C20626D1EF6D570BDA6
:1002200070B5044685690078C00707D170BDD4E970
:10023000012120209047206A401C20626D1EF6D5C7
:1002400070BD00002DE9F0410646002410687529B4
:10025000314616A510D0AFF30080002802DA4042E4
:1002600013A507E031688A0701D512A502E0490706
:1002700004D511A5012401E0AFF3008000210A227A
:1002800006F1240709E0B0FBF2FCB0FBF2F302FB3D
:100290001C00303078541846491C0028F3D12346FE
:1002A0002A463046BDE8F04100F06DB9000000007C
:1002B0002D0000002B0000002000000070B5044657
:1002C0000D4621461068AFF300802188090502D54C
:1002D0000F4A7A4402E00E4A7A440E32002104F1B9
:1002E000240305E000F00F060009965D5E54491CEA
:1002F0000028F7D120780023000704D5702D02D004
:1003000009B1022311322046BDE8704000F03BB92C
:100310001C5400002DE9F05F894604464FF0000AA6
:10032000DFF824B1FB44C0F820A02046E1688847EC
:1003300000287DD0252806D0D4E901219047206AE5
:10034000401C2062F1E700255F462046E1688847AF
:100350002028064607DB312E05D2B81910F8200CEC
:1003600008B10543F1E7A80701D525F00405C4F855
:100370001CA00027C4F818A02A2E09D0304601F08E
:100380000AFE38B304EB8708303EC8F8186019E05D
:1003900059F8041B204604EB87029161E168884705
:1003A000012F064618D1E069002820DA25F0200543
:1003B0001DE0D8F8180000EB800006EB4000303854
:1003C000C8F818002046E1688847064601F0E3FDBA
:1003D0000028EED1012F0AD02E2E08D12046E16848
:1003E00088477F1C0646022F45F02005C4DBA06924
:1003F000002803DA404245F00105A061E80701D07A
:1004000025F01005A6B1A6F14100192802D8203622
:1004100045F400654A463146204625604D46FFF7C3
:100420009FFE60B1012807D0ED1D25F0070000E018
:1004300007E000F1080978E705F1040975E730469F
:100440007AE7206ABDE8F09FF2530000032A40F2E9
:10045000308010F0030C00F0158011F8013BBCF166
:10046000020F624498BF11F801CB00F8013B38BF7E
:1004700011F8013BA2F1040298BF00F801CB38BF8C
:1004800000F8013B11F0030300F02580083AC0F0AA
:10049000088051F8043B083A51F804CBA0E8081052
:1004A000F5E7121D5CBF51F8043B40F8043BAFF385
:1004B0000080D20724BF11F8013B11F801CB48BFDF
:1004C00011F8012B24BF00F8013B00F801CB48BF15
:1004D00000F8012B704710B5203AC0F00B80B1E84E
:1004E0001850203AA0E81850B1E81850A0E8185069
:1004F000BFF4F5AF5FEA027C24BFB1E81850A0E872
:10050000185044BF18C918C0BDE810405FEA827C8B
:1005100024BF51F8043B40F8043B08BF7047D207A2
:1005200028BF31F8023B48BF11F8012B28BF20F843
:10053000023B48BF00F8012B70474FF0000204292E
:10054000C0F0128010F0030C00F08A80CCF1040C93
:10055000BCF1020F18BF00F8012BA8BF20F8022B36
:10056000A1EB0C0100F07CB85FEAC17C24BF00F86D
:10057000012B00F8012B48BF00F8012B7047704792
:100580007047704770472DE9F0470D4699469246EF
:10059000044600F124080168880604D5E06921F0CA
:1005A0001001216000E00120A84201DD471B00E0AE
:1005B0000027A1697A1902EB0900081AA0612078C6
:1005C000C00602D42046FFF715FE002608E0D4E955
:1005D00001211AF806009047206A401C761C206210
:1005E0004E45F4DB2078C0060AD52046FFF702FE10
:1005F00006E0D4E9012130209047206A401C2062A7
:10060000381EA7F10107F4DC07E0D4E9012118F84E
:1006100005009047206A401C2062281EA5F10105B4
:10062000F3DC2046FFF7FCFD2078000602D502200F
:10063000BDE8F0870120FBE7074B70B50D467B4412
:1006400000F039F80446284600F048F810B14FF0A1
:10065000FF3070BD204670BDA31A00004FF00002AD
:1006600000B5134694469646203922BFA0E80C50A8
:10067000A0E80C50B1F12001BFF4F7AF090728BF83
:10068000A0E80C5048BF0CC05DF804EB890028BFFF
:1006900040F8042B08BF704748BF20F8022B11F028
:1006A000804F18BF00F8012B7047000001694A1CF9
:1006B00002610878704700B58FB0CDE901310021A3
:1006C000059105497944CDE9031011466846FFF7C5
:1006D00021FE0FB000BD0000E5FFFFFF007B00F032
:1006E0008000704700487047EC0200207546FFF715
:1006F000F9FFAE4605006946534620F007008546DF
:1007000018B020B5FFF756FDBDE820404FF00006B9
:100710004FF000074FF000084FF0000B21F00701E9
:10072000AC46ACE8C009ACE8C009ACE8C009ACE82C
:10073000C0098D46704710B50446AFF300802046CF
:10074000BDE81040FFF721BD21B1826842F00102EF
:10075000826003E0826822F001028260704700003C
:1007600010B504461248844208D10121401500F01A
:1007700011FF0021601500F00DFF17E00D488442C5
:1007800008D10121001500F005FF0021201500F01F
:1007900001FF0BE00848844208D10121C80300F0A2
:1007A000F9FE00214FF4004000F0F4FE10BD0000FF
:1007B0000024014000280140003C01400146002087
:1007C0008A6802F004020AB1012000E000207047AC
:1007D0000146C86C80B270470246002013680B4087
:1007E0000BB1012000E000207047014600208A681C
:1007F00002F008020AB1012000E00020704700006A
:1008000030B502460020002350680F4C20400D797F
:100810000C6844EA05242043506090680B4C20404B
:10082000D1E902542C434D7944EA450420439060B9
:10083000D06A20F470000C7C641EE4B2234340EACA
:100840000350D06230BD0000FFFEF0FFFDF7F1FF66
:10085000F0B504460D4600200021092D11DDE068A9
:10086000A5F10A0606EB4607072606FA07F18843B4
:10087000A5F10A0606EB460603FA06F10843E06016
:100880000CE0206905EB4507072606FA07F18843C7
:1008900005EB450603FA06F108432061072A0FDA43
:1008A000606B561E06EB86071F2606FA07F1884383
:1008B000561E06EB860605FA06F10843606322E041
:1008C0000D2A0FDA206BD61F06EB86071F2606FAC5
:1008D00007F18843D61F06EB860605FA06F10843A2
:1008E000206310E0E06AA2F10D0606EB86071F26E2
:1008F00006FA07F18843A2F10D0606EB860605FA13
:1009000006F10843E062F0BD816841F008018160B2
:10091000704721B1826842F4A002826003E08268DD
:1009200022F4A00282607047816841F00401816076
:100930007047000000B587B001214FF4017000F04E
:1009400019FE1020ADF8180000208DF81B000320C0
:100950008DF81A0006A91A4800F0E9F84FF4004093
:1009600000F0DCFD1748FFF7FBFE00208DF80900C2
:1009700004904FF4602003900020019001208DF836
:10098000140000208DF8080001A90E48FFF738FF79
:1009900001210C48FFF7D8FE0A48FFF7B5FF00BF5A
:1009A0000848FFF722FF0028FAD10648FFF7BCFFEE
:1009B00000BF0448FFF702FF0028FAD107B000BDCE
:1009C000000801400024014010B5044603F09CFBE0
:1009D000462003F06FFB03F0BFFB012800D110BDE0
:1009E000204603F067FB03F0B7FB012801D102208A
:1009F000F5E703F0A1FB0020F1E710B500F0E2F904
:100A000000F004F81020FFF7DFFF10BD10B5012043
:100A1000FFF7DAFF10BD10B5002403F075FB472087
:100A200003F048FB03F098FB012801D1002010BD22
:100A300003F01EFB044603F0D9FA03F019FB00EBA8
:100A4000042084B203F000FB03F076FB2046EEE7BF
:100A500000BFFEE708B50121082000F08BFD402013
:100A6000ADF8000010208DF8030003208DF802007F
:100A70006946044800F05BF84021024800F035F96F
:100A800008BD0000000C014008B54020ADF8000092
:100A900048208DF803006946014800F048F808BD79
:100AA000000C014008B54020ADF8000010208DF882
:100AB000030003208DF802006946024800F037F871
:100AC00008BD0000000C014010B5202000F018F80F
:100AD00028B1034800688047202000F003F810BDCB
:100AE0005800002000F0805111B10349086001E076
:100AF00002494860704700000404024000000240C0
:100B000001460020002201F0805313B1054B1A6802
:100B100001E0054B1A6802EA01030BB1012000E075
:100B200000207047000402400000024070472DE999
:100B3000F041024600250026002000230024002763
:100B400091F803C00CF00F0591F803C00CF0100CE5
:100B5000BCF1000F03D091F802C04CEA050591F8F2
:100B600000C0BCF1000F31D0146800202BE04FF022
:100B7000010C0CFA00F3B1F800C00CEA03069E4227
:100B800020D183004FF00F0C0CFA03F7BC4305FA99
:100B900003FC4CEA040491F803C0BCF1280F06D111
:100BA0004FF0010C0CFA00FCC2F814C00AE091F8F6
:100BB00003C0BCF1480F05D14FF0010C0CFA00FC4A
:100BC000C2F810C0401C0828D1D31460B1F800C08E
:100BD000BCF1FF0F34DD546800202EE000F1080C5A
:100BE0004FF0010808FA0CF3B1F800C00CEA030654
:100BF0009E4221D183004FF00F0C0CFA03F7BC4347
:100C000005FA03FC4CEA040491F803C0BCF1280F78
:100C100005D100F1080C08FA0CF8C2F8148091F81C
:100C200003C0BCF1480F07D100F1080C4FF00108D8
:100C300008FA0CF8C2F81080401C0828CED3546083
:100C4000BDE8F081F0B50A4600230024002100250C
:100C500000F00046B6F1004F02D11D4EF16901E0EF
:100C60001B4E7168C0F3034583B200F44016B6F51D
:100C7000401F08D121F07061154E766826F070662D
:100C8000134F7E6012E000F48016B6F5801F06D187
:100C9000032606FA05F4A14341F0706106E0460D13
:100CA000360103FA06F6B14341F0706122B1460DF8
:100CB000360103FA06F6314300F00046B6F1004F64
:100CC00002D1034EF16101E0014E7160F0BD000000
:100CD000000001400246002093680B400BB1012048
:100CE00000E00020704741617047016170470000DB
:100CF00010B504460723012221460948FFF7A8FD45
:100D000001210748FFF705FE00BF02210448FFF755
:100D100063FD0028F9D00248FFF75AFD10BD00001E
:100D2000002401402DE9F04707460C460025002627
:100D300008E03846FFF7DCFF0544012001F06CF9BC
:100D4000701CC6B2A642F4DBB5FBF4F8404603F0D3
:100D500009FF0C490860084601680B4804F048F890
:100D600082460A4903F008FE8146094903F042FF22
:100D7000804603F0C3FE074908600846008880B239
:100D8000BDE8F0875400002000C07F4500C04D45FD
:100D90000000C8425000002010B502F0B1FF41F63B
:100DA0001F41092000F0BCFD4FF4165003F0EAFC8F
:100DB00013210248FFF7C1FB10BD0000D80200203C
:100DC00000BFFEE708B50121042000F0D3FBC020DE
:100DD000ADF8000003208DF8020014208DF8030008
:100DE00069460348FFF7A3FE03F0A6F908BD00001B
:100DF0000008014008B50121042000F0BBFB0820D9
:100E0000ADF8000010208DF8030001208DF80200DD
:100E100069460448FFF78BFE08210248FFF763FF8D
:100E200008BD00000008014070B5FFF7F4FD06465C
:100E300003F098FE0546044903F09EFD04464FF07A
:100E40007E5103F0D7FE70BDCDCC8C3F00BFFEE7D6
:100E500030B589B005460C460121042000F08AFB1C
:100E60000121084600F066FB0121084600F082FBE4
:100E700018208DF823000E20ADF8200003208DF8F7
:100E800022000020ADF81A00ADF81600ADF8185099
:100E9000ADF814406020ADF804000020ADF80E005D
:100EA0000120ADF8060008A91448FFF740FE05A987
:100EB0004FF0804000F098FE01A94FF0804000F014
:100EC00089FD01A94FF0804000F0E4FD01A94FF039
:100ED000804000F039FE0821C80600F02BFE0821F2
:100EE000C80600F0C9FD0821C80600F06BFE01210C
:100EF000880700F048FD09B030BD0000000801403F
:100F00007047000070B5002100230F22C47804B39D
:100F1000154C246804F4E064C4F5E064210AC1F1CE
:100F20000403CA40447804FA03F18478144021434E
:100F300009010E4C0678A155047804F01F05012420
:100F4000AC4005786D11AD0005F1E025C5F8004114
:100F500009E0047804F01F050124AC40044D067834
:100F6000761145F8264070BD0CED00E000E400E08D
:100F700080E100E002490143024A1160704700002D
:100F80000000FA050CED00E070B5002418E004F153
:100F9000B000002100F039FA0021084600F035FACF
:100FA0000021102000F031FA002505E00121002089
:100FB00000F02BFA681CC5B2802DF7DB601CC4B2B0
:100FC000082CE4DB70BD000010B54FF480710948B7
:100FD000FFF78BFE4FF400710648FFF786FE4FF4D3
:100FE00000710448FFF77FFE4FF480710148FFF75E
:100FF0007AFE10BD000C014010B54FF48071074817
:10100000FFF773FE4FF400710448FFF76CFE4FF4D6
:1010100000710248FFF769FE10BD0000000C01409E
:1010200010B54FF480710448FFF75FFE4FF48071F4
:101030000148FFF758FE10BD000C014008B5012122
:10104000092000F097FA01214348FFF7FBFD4FF418
:101050004070ADF8000010208DF8030003208DF8DB
:10106000020069463D48FFF762FD4FF440713B487E
:10107000FFF73BFE4FF4487000F0CEFF0021AE209A
:1010800000F0C3F90021084600F0BFF9002110204C
:1010900000F0BBF90021402000F0B7F90021B0209A
:1010A00000F0B3F90021812000F0AFF90021FF200A
:1010B00000F0ABF90021A12000F0A7F90021A62043
:1010C00000F0A3F90021A82000F09FF900213F20A3
:1010D00000F09BF90021C82000F097F90021D320EF
:1010E00000F093F90021084600F08FF90021D52087
:1010F00000F08BF90021802000F087F90021D82032
:1011000000F083F90021052000F07FF90021D920AB
:1011100000F07BF90021F12000F077F90021DA20BE
:1011200000F073F90021122000F06FF90021DB209C
:1011300000F06BF90021302000F067F900218D20CC
:1011400000F063F90021142000F05FF90021AF20C6
:1011500000F05BF908BD000000023000000C014007
:101160002DE9F0470546894616463446002C22DA1A
:101170006442642094FBF0F100FB11400A2190FBD3
:10118000F1F0C7B20A2094FBF0F100FB114000F02F
:10119000FF080D224946284600F09EF9691CC8B296
:1011A0003A46494600F08EF8A91CC8B24246494664
:1011B00000F088F820E0642094FBF0F100FB11407F
:1011C0000A2190FBF1F0C7B20A2094FBF0F100FB7A
:1011D000114000F0FF080B224946284600F07CF938
:1011E000691CC8B23A46494600F06CF8A91CC8B25E
:1011F0004246494600F066F8BDE8F0872DE9F04721
:1012000005468A4616463446002C2DDA64420D22E5
:101210005146284600F060F90A2094FBF0F100FBEB
:101220001140C7B20A2094FBF0F00A2190FBF1F2C2
:1012300001FB120000F0FF08642094FBF0F000F0C6
:10124000FF09E91CC8B23A46514600F03BF8A91C18
:10125000C8B24246514600F035F8691CC8B24A4649
:10126000514600F02FF82BE00B225146284600F0A3
:1012700033F90A2094FBF0F100FB1140C7B20A20B9
:1012800094FBF0F00A2190FBF1F201FB120000F058
:10129000FF08642094FBF0F000F0FF09E91CC8B2DD
:1012A0003A46514600F00EF8A91CC8B242465146D3
:1012B00000F008F8691CC8B24A46514600F002F82E
:1012C000BDE8F0872DE9F04105460F46164600BF00
:1012D00005EB45014906080E394600F015F80024D3
:1012E0000BE006F1100101EB4101064A02EB41015E
:1012F000085D012100F089F8641C062CF1DBBDE8D3
:10130000F0810000DA4E000870B504460D4605F184
:10131000B000002100F079F8102141EA14100021FA
:1013200000F073F804F00F00002100F06EF870BDBB
:101330002DE9F04707460E469046994600250024C1
:10134000A8F12000C5B27F2F02DD0027B01CC6B275
:10135000B9F1100F24D131463846FFF7D5FF0024EC
:1013600008E004EB0511194A505C012100F04DF82A
:10137000601CC4B2082CF4DB701CC1B23846FFF705
:10138000C3FF002409E004EB051108310F4A505C4B
:10139000012100F03AF8601CC4B2082CF3DB12E023
:1013A00031463846FFF7B0FF00240AE005EB45015F
:1013B000074A02EB4101085D012100F026F8601C9C
:1013C000C4B2062CF2DBBDE8F08700000251000831
:1013D000DA4E00082DE9F04105460E4614461F4638
:1013E0000EE022783B4631462846FFF7A1FF05F183
:1013F0000800C5B2782D02DD0025B01CC6B2641C01
:1014000020780028EDD1BDE8F08170B504460D4686
:101410001DB1E0B200F04AF802E0E0B200F030F8AE
:1014200070BD00002DE9F04105462C464FF4807157
:101430001248FFF758FC00261CE0274607F08007FB
:10144000802F04D1B9000D48FFF74FFC04E04FF4A2
:1014500000710A48FFF747FC6006040E4FF48071E4
:101460000648FFF742FC4FF480710448FFF73BFC4D
:10147000701CC6B2082EE0DBBDE8F081000C014014
:1014800010B50446FFF7A0FD7820FFF7CBFFFFF76C
:10149000C7FD0020FFF7C6FFFFF7C2FD2046FFF79C
:1014A000C1FFFFF7BDFDFFF7A7FD10BD10B5044656
:1014B000FFF78AFD7820FFF7B5FFFFF7B1FD402069
:1014C000FFF7B0FFFFF7ACFD2046FFF7ABFFFFF7DC
:1014D000A7FDFFF791FD10BD2DE9F04105460F4630
:1014E000164600BF05EB45014906080E3946FFF7D1
:1014F0000BFF002409E006EB4601064A02EB41011E
:10150000085D0121FFF781FF641C062CF3DBBDE8B9
:10151000F0810000DA4E000870470000014600200C
:10152000034A506820F44040084350607047000070
:101530000010024029B1064AD2690243044BDA6125
:1015400004E0034AD2698243014BDA61704700002C
:101550000010024029B1064A12690243044B1A6185
:1015600004E0034A12698243014B1A61704700008C
:101570000010024029B1064A92690243044B9A6165
:1015800004E0034A92698243014B9A61704700006C
:101590000010024029B1064AD2680243044BDA60C7
:1015A00004E0034AD2688243014BDA6070470000CE
:1015B0000010024030B500210022002400232D4DF0
:1015C0006D6805F00C0121B1042905D0082923D14B
:1015D00005E0294D056022E0274D05601FE0254DFF
:1015E0006D6805F47012234D6D6805F48034022592
:1015F00005EB92421CB9214D554305600BE01D4D92
:101600006D6805F400351DB11C4D5543056002E0C1
:10161000194D5543056002E0174D056000BF00BF3E
:10162000144D6D6805F0F0010909154D6B5C0568F6
:10163000DD4045600F4D6D6805F4E061090A104D0D
:101640006B5C4568DD4085600A4D6D6805F460514E
:10165000C90A0B4D6B5C4568DD40C560054D6D6882
:1016600005F44041890B074D6B5CC568B5FBF3F58C
:10167000056130BD0010024000127A0000093D00F3
:10168000000000201000002070B50025002424E098
:1016900000BF40211348FFF71DFB0028F9D032207E
:1016A00000F0E0FC40210F48FFF714FB01280DD1AA
:1016B00000BF40210B48FFF70DFB0128F9D0C4F112
:1016C000070101208840C0B2054304E0C4F10701CE
:1016D000012088408543601CC4B2082CD8DB284612
:1016E00070BD0000000C014010B50446FFF7DAF9A8
:1016F00040212448FFF7F7FA122000F08DFC40212A
:101700002048FFF7F2FA1E2000F0ACFCFFF7BCF90E
:1017100040211C48FFF7DEFA80BB00BF402119487A
:10172000FFF7D8FA0028F9D000BF40211548FFF78D
:10173000D1FA0128F9D0FFF7A7FF2070FFF7A4FF27
:101740006070FFF7A1FFA070FFF79EFFE070FFF74A
:101750009BFF2071FFF7A6F940210A48FFF7C5FA61
:10176000207861780844A1780844E1780844217918
:10177000884201D1012010BD0020FCE7FFE70020D6
:10178000F9E70000000C0140704710B500F002F8C6
:1017900010BD00000CB50020019000903348006897
:1017A00040F480303149086000BF3048006800F4E0
:1017B000003000900198401C0190009818B90198E1
:1017C000B0F5A06FF1D12948006800F4003010B1E5
:1017D0000120009001E0002000900098012843D1F2
:1017E0002348006840F0100021490860084600685E
:1017F00020F0030008600846006840F0020008601E
:101800001A484068194948600846406848600846D8
:10181000406840F4806048600846406820F47C10CE
:1018200048600846406840F4E81048600846006890
:1018300040F08070086000BF0C48006800F0007045
:101840000028F9D00948406820F0030007494860A3
:101850000846406840F00200486000BF0348406806
:1018600000F00C000828F9D10CBD00000010024067
:1018700000200240042808D14FF0E021096941F01E
:1018800004014FF0E022116107E04FF0E021096907
:1018900021F004014FF0E022116170477047000011
:1018A00010B51348006840F001001149086008466F
:1018B0004068104908400E494860084600680E49D3
:1018C00008400B4908600846006820F48020086042
:1018D0000846406820F4FE0048604FF41F0088600E
:1018E000FFF753FF4FF000600449086010BD00008F
:1018F000001002400000FFF8FFFFF6FE08ED00E0D8
:1019000010B50121054800F04AF828B1012103482B
:1019100000F036F801F0F6FE10BD000000040040B3
:101920007FB505460C4601210220FFF703FEADF806
:101930000850ADF804400020ADF80A00ADF80600EC
:1019400001A90E4800F050F9012211460B4800F0A1
:1019500037F81D208DF8000000208DF801000320CD
:101960008DF8020001208DF803006846FFF7CAFADF
:101970000121024800F007F87FBD0000000400408C
:10198000CA430282704721B1028842F001020280FC
:1019900004E002884FF6FE731A400280704730B5AB
:1019A0000246002000230024158A05EA01039589D8
:1019B00005EA010413B10CB1012000E0002030BDA4
:1019C0001AB183890B43838102E083898B4383812E
:1019D0007047000070B5002400220023058C4FF6EC
:1019E000EF7635400584028C8388048B48F6FF75BA
:1019F0002C404FF6FF452C400D884FF6FF7606EA47
:101A000005252C434FF6DF752A400D8906EA05159A
:101A10002A434D8806EA05152A43154DA84202D0EF
:101A2000144DA8421DD14FF67F752A404D894FF6BF
:101A3000FF7606EA05152A434FF6BF752A408D88C2
:101A400006EA05152A434FF6FF352B404FF2FF7586
:101A50002B408D8906EA85052B43CD8906EA85054D
:101A60002B4383800483CD880587028470BD0000EA
:101A7000002C0140003401400A460021018B4FF246
:101A8000FF7319404FF6FF7303EA022319430183E2
:101A90007047000070B5002400220023058C4FF62B
:101AA000FF6635400584028C8388848B4FF68F75E2
:101AB0002C404FF6FC752C400D882C434FF6FF55FB
:101AC0002A400D894FF6FF7606EA05252A434D8800
:101AD00006EA05252A43154DA84202D0144DA84216
:101AE0001DD14FF2FF752A404D894FF6FF7606EA69
:101AF00005252A434FF6FF352A408D8806EA05253D
:101B00002A434EF6FF752B404DF6FF752B408D890D
:101B100006EA05152B43CD8906EA05152B4383807C
:101B20008483CD888587028470BD0000002C01402D
:101B3000003401400A460021818B4FF6F7731940AB
:101B4000114381837047000070B5002200230024F8
:101B5000058C4EF6FF7635400584038C8488828B95
:101B600048F6FF752A404FF6FF452A400D884FF68C
:101B7000FF7606EA05252A434DF6FF752B400D89B1
:101B800006EA05352B434D8806EA05352B430B4DF8
:101B9000A84202D00A4DA84208D14BF6FF752C404E
:101BA0008D894FF6FF7606EA85152C438480828363
:101BB000CD88A0F84050038470BD0000002C014087
:101BC000003401400A460021818B4FF2FF73194017
:101BD0004FF6FF7303EA022319438183704701879D
:101BE0007047818770470000002202881D4B984291
:101BF0000ED01D4B98420BD0B0F1804F08D01B4B3C
:101C0000984205D01A4B984202D01A4B984204D100
:101C10004FF68F731A404B881A43174B984207D0E0
:101C2000164B984204D04FF6FF431A40CB881A4314
:101C300002808B8883850B8803850A4B98420BD0E2
:101C4000094B984208D00E4B984205D00D4B984254
:101C500002D00D4B984201D10B7A03860123838277
:101C600070470000002C0140003401400004004097
:101C700000080040000C004000100040001400402C
:101C800000400140004401400048014010B540F2CE
:101C900025511D4800F0B9F810B31B4800F070F949
:101CA000C4B21A48008800F40040C8B91748008838
:101CB00000F4804060B10A2C03D000201349088052
:101CC00020E01248008840F400401049088019E0E4
:101CD0000D2C06D10D48008840F480400B49088047
:101CE00010E00A480088C0F30D0009490C54074869
:101CF0000088401C0549088008460088C72801DD87
:101D00000020088010BD0000003801404C00002079
:101D10009C00002008B540F22551074800F075F8F6
:101D200040B1054800F02CF9C0B20090012168468E
:101D300001F0A0FB08BD00000048004021B18289ED
:101D400042F40052828104E082894DF6FF731A400A
:101D50008281704710B504462048844209D1012190
:101D60008803FFF717FC00214FF48040FFF712FCB7
:101D700032E01B48844209D101214804FFF7EAFB05
:101D800000214FF40030FFF7E5FB25E015488442C1
:101D900009D101218804FFF7DDFB00214FF48020E9
:101DA000FFF7D8FB18E01048844209D10121C8048C
:101DB000FFF7D0FB00214FF40020FFF7CBFB0BE037
:101DC0000A48844208D101210805FFF7C3FB00211E
:101DD0004FF48010FFF7BEFB10BD0000003801403B
:101DE0000044004000480040004C004000500040CB
:101DF00002460020B1F5007F00D100BF13880B40E0
:101E00000BB1012000E00020704770B502460024AD
:101E100000230025002040F66A16B14200D100BF21
:101E2000C1F3421501F01F03012606FA03F3012D49
:101E300002D19689334006E0022D02D1168A334042
:101E400001E0968A33400C12012606FA04F4168843
:101E5000344013B10CB1012000E0002070BDF0B59A
:101E60000346002400260025002040F66A17B942E8
:101E700000D100BF1846C1F3421401F01F0601272C
:101E800007FA06F5012C01D10C3004E0022C01D137
:101E9000103000E014301AB107682F43076002E0E9
:101EA0000768AF430760F0BD2DE9F04786B00546EF
:101EB0000E460024A24600BFA1460027B08900B10B
:101EC00000BF2F462C8A4CF6FF700440F088044374
:101ED0002C82AC894EF6F3100440B0883189084357
:101EE000718908430443AC81AC8A4FF6FF4004403B
:101EF000B0890443AC8201A8FFF75CFB1F4887420E
:101F000002D1DDF810A001E0DDF80CA0A88900F4F2
:101F1000004040B10AEBCA0000EB0A1031684900EA
:101F2000B0FBF1F807E00AEBCA0000EB0A103168D9
:101F30008900B0FBF1F86420B8FBF0F0040120093F
:101F4000642101FB1089A88900F4004040B13220CF
:101F500000EBC900B0FBF1F000F00700044308E01B
:101F6000322000EB09106421B0FBF1F000F00F000B
:101F700004432C8106B0BDE8F08700000038014022
:101F800001468888C0F308007047C1F308028280C8
:101F9000704700BFFEE730380A2801D201207047A1
:101FA0000020704700BF704710B501460022002393
:101FB000002003E051F820402244401C044C2468D7
:101FC000A042F7DB0A2092FBF0F3184610BD000098
:101FD0002800002010B56FF00400FFF74BFC0A4802
:101FE00000680A49B0FBF1F009490870084600781A
:101FF00000EB4001C1EBC0104FF6FF7101EAC000D9
:102000000449088010BD00003000002000127A0052
:1020100044000020460000200146114A12884A432D
:102020004FF0E0235A6100229A611A46126942F089
:1020300001021A6100BF4FF0E022106900F00102B6
:102040001AB100F48032002AF5D04FF0E022126974
:1020500022F001024FF0E0231A6100229A617047DA
:10206000460000200146114A12784A434FF0E0230F
:102070005A6100229A611A46126942F001021A61FD
:1020800000BF4FF0E022106900F001021AB100F425
:102090008032002AF5D04FF0E022126922F00102CE
:1020A0004FF0E0231A6100229A617047440000203B
:1020B00001B581B000200090694601AA50780870EF
:1020C00010784870BDF800000CBD0146080601F408
:1020D0007F4240EA022001F47F0240EA122040EAF7
:1020E0001160704700BF054A128802F04002002AC2
:1020F000F9D0C2B2014B1B1D1A8070470038014055
:10210000024612B102F0070028B9082901D80020C0
:1021100070470120FCE702F00700C0F10800884288
:1021200001D30020F4E70120F2E730B502460B4668
:102130000021002400250AB9481E30BD002108E016
:10214000545C581A401E155C5554581A401E1454BD
:10215000491CB1EB530FF3D30020EEE72DE9F0411A
:1021600004460D460027002604B135B936A0FEF717
:1021700035F84FF0FF30BDE8F08100F001FA064677
:1021800028782178884203D039A0FEF727F8012764
:1021900068786178884203D03AA0FEF71FF80127DB
:1021A000A878A178884203D03BA0FEF717F8012752
:1021B000D5F80300D4F8031088420AD03C480068E0
:1021C000301A41F27071884203D33AA0FEF706F844
:1021D0000127D5F80700D4F8071088420AD0344800
:1021E0000068301A41F27071884203D338A0FDF7BD
:1021F000F5FF0127D5F80B00D4F80B1088420AD060
:102200002B480068301A41F27071884203D336A01F
:10221000FDF7E4FF0127D5F80F00D4F80F1088422E
:102220000AD023480068301A41F27071884203D303
:1022300035A0FDF7D3FF0127012F03D100F0A0F94E
:102240001B490860384696E767697A436865636B9F
:102250005265706F7274204572726F72202C204923
:102260006C6C6567616C20506172616D0A000000E2
:1022700076616C75654C69676874204368616E6748
:1022800065640A0076616C756577617465722043D8
:1022900068616E6765640A0076616C756577696E62
:1022A000646F7773204368616E6765640A0000009D
:1022B0005C00002076616C756554656D70657261B7
:1022C00074757265204368616E6765640A0000007A
:1022D00076616C756548756D6964697479204368C9
:1022E000616E6765640A000076616C75654C6967AC
:1022F0006874696E74656E73697479204368616E81
:102300006765640A0000000076616C7565736F692B
:102310006C5F6D6F697374757265204368616E6779
:1023200065640A00F8B505460C4616460DB104B1C1
:102330002EB928A0FDF752FF4FF0FF30F8BD2878E6
:1023400000F0010098B111212278601C815420789E
:10235000401C207001206B1C0246002100900846A2
:1023600001F06EF908B1012000E0002030702878FB
:10237000C0F3400098B112212278601C815420786B
:10238000401C207001206B1C02460146009000207A
:1023900001F056F908B1012000E0002070702878A3
:1023A000C0F3800098B113212278601C81542078FA
:1023B000401C207001206B1C02460221009000206E
:1023C00001F03EF908B1012000E00020B0700020CB
:1023D000B4E7000067697A44617461506F696E7494
:1023E000324576656E74204572726F72202C2049DA
:1023F0006C6C6567616C20506172616D0A00000051
:1024000038B504460D4604B12DB922A0FDF7E6FE0D
:102410004FF0FF3038BD0020287020782B46012275
:1024200000210090084601F0CBF860782B4601228D
:1024300011460090002001F0C3F8A0782B4601223D
:1024400002210090002001F0BBF801212846FFF78F
:102450006CFED4F803206FF03101012001F05AF92D
:102460006870D4F807206FF03101012001F052F9B3
:10247000A870D4F80B206FF00901012001F04AF98F
:10248000E870D4F80F200021012001F043F92871F1
:102490000020BFE767697A44617461506F696E74A8
:1024A00073325265706F7274446174612045727248
:1024B0006F72202C20496C6C6567616C20506172D2
:1024C000616D0A0070B5054600F05AF804461D49D2
:1024D0002846FFF743FE012813D11BA0FDF77EFE1F
:1024E000184918392846FFF78BFF28B905221549E6
:1024F0001839042000F0F8FF132229461148FDF78F
:10250000A5FF1748B4FBF0F100FB1140C8B915480E
:102510000068A04215D014A0FDF760FE09491839E3
:102520002846FFF76DFF28B905220649183904200F
:1025300000F0DAFF132229460248FDF787FF094819
:10254000046070BD330200206368616E6765642CAF
:10255000207265706F727420646174610A000000FB
:10256000C027090060000020496E666F3A203630AF
:102570003053207265706F727420646174610A0058
:1025800001480068704700006C00002010B5174833
:1025900090F84200012827D1144890F84100022801
:1025A0001DDAFFF7EDFF1149D1F85F10401AC82876
:1025B0001AD9FFF7E5FF04460C4890F84130D0F8EF
:1025C0005F2021460AA0FDF709FE00F0ABFE074898
:1025D00090F84100401C054981F8410004E02221A7
:1025E00002484130FDF7A9FF10BD00006401002042
:1025F0005761726E696E673A67697A50726F746F6D
:10260000636F6C526573656E644461746120256408
:102610002025642025640A003EB50446002524B91F
:1026200013A0FDF7DBFD681E3EBD206800906068CA
:1026300001909DF80400401CC0B28DF804000520F4
:10264000FFF736FDADF802000921684600F0A8FE4C
:102650008DF808000921684601F0E6FF0546002DC7
:1026600003DA29460DA0FDF7B9FD2846DCE7000096
:102670004552523A2067697A50726F746F636F6C7B
:10268000436F6D6D6F6E41636B206461746120698F
:102690007320656D707479200A0000004552523A2B
:1026A0002075617274207772697465206572726F2B
:1026B00072202564200A0000FEB504460E4600255F
:1026C00024B914A0FDF78AFD681EFEBD684600F01F
:1026D000D7F912208DF8040060798DF805000620E6
:1026E000FFF7E6FCADF802008DF808600A216846A5
:1026F00000F056FE8DF809000A21684601F094FFAB
:102700000546002D03DA29460DA0FDF767FD284692
:10271000DBE7000067697A50726F746F636F6C4516
:1027200072726F72436D64204572726F72202C203A
:10273000496C6C6567616C20506172616D0A0000C4
:102740004552523A2075617274207772697465201F
:102750006572726F72202564200A000030B59DB04A
:10276000044600252CB92BA0FDF738FD681E1DB0CE
:1027700030BD684600F084F902208DF804006079CD
:102780008DF805002FA103C9CDE9020130A103C9CD
:10279000CDE9040131A103C9CDE9080132A103C982
:1027A000CDE90601202233A10AA8FDF794FE2022DC
:1027B00039A10DF15200FDF749FE0020CDF84A0085
:1027C000CDF84E009DF851008DF851009DF8510054
:1027D00040F002018DF851100020FFF769FCADF8C0
:1027E00048006F20FFF764FCADF8020073216846D3
:1027F00000F0D6FD8DF872007321684601F014FFD9
:102800000546002D03DA29462CA0FDF7E7FC2846F3
:10281000ADE7000067697A50726F746F636F6C4741
:102820006574446576696365496E666F20457272AA
:102830006F72202C20496C6C6567616C205061724E
:10284000616D0A003030303030303034000000002C
:102850003030303030303032000000003033303330
:102860003030303000000000303330313031303023
:10287000000000006131353737353163633135335E
:1028800034363064613266366464363539663362B4
:102890003762373300000000343163373831323566
:1028A0006164613434316431613666356531626446
:1028B0003735636632313732000000004552523AF4
:1028C0002075617274207772697465206572726F09
:1028D00072202564200A00002DE9FE4F80460E4636
:1028E00017464FF0000B00200290814682460025DB
:1028F00034460090B8F1000F01D006B137B950A0AE
:10290000FDF76CFC4FF0FF30BDE8FE8F404601F054
:10291000AFFD00F0FF0ABAF1000F02D14FF0FF3017
:10292000F2E74FF000095DE0012201A9404601F005
:10293000DCFD8346BBF1000F52D04D480078FF28E4
:102940001FD19DF80400FF281BD14A48007848B9E0
:10295000FF2020706070022047490880012045490F
:10296000087034E044480088042830DD424800887C
:10297000A8422CD0FF202070607002203E490880C1
:1029800025E03B480078FF2803D19DF80400552836
:102990001DD038480078012819D19DF80400364927
:1029A0000988605434480088401C33490880084630
:1029B000008804280BDD0094009C6088FFF778FBFA
:1029C000001D85B22C480088A84200D10CE09DF87B
:1029D00004002749087029480078401C27490870DE
:1029E00009F10109D1459FDB00BF23480088042875
:1029F00023DD21480088A8421FD11F4801882046B6
:102A000000F0CEFC02901C480088401E215C029819
:102A100081420FD12A4621463046FDF717FD3D8001
:102A2000002014490870144908801449087010499E
:102A3000087069E76FF0010066E7012064E70000B5
:102A400067697A50726F746F636F6C4765744F6E0D
:102A5000655061636B6574204572726F72202C2023
:102A6000496C6C6567616C20506172616D0A000091
:102A7000680000206400002066000020690000203B
:102A800010B504462CB907A0FDF7A8FB4FF0FF30A6
:102A900010BD002020606060FF202070607000206A
:102AA000F6E700004552523A2067697A50726F7417
:102AB0006F636F6C48656164496E69742068656115
:102AC0006420697320656D707479200A000000002D
:102AD0002DE9F04F8FB006468B46174699460020E9
:102AE0000E9082468046002501ACBBF1000F06D156
:102AF00031A0FDF773FB681E0FB0BDE8F08FB9F190
:102B0000010F06D196F8088008F10600384485B216
:102B100001E0781D85B22B46424639462CA0FDF7D0
:102B20005DFBFF2004F8010B04F8010B281204F8E8
:102B3000010B04F8015B3079401C04F8010B70793B
:102B400004F8010B002004F8010B04F8019B4FF07E
:102B5000080AB9F1010F0DD104F8018B0AF1010A3D
:102B600001A901EB0A00424606F10901FDF76EFCDE
:102B7000C244444437B101A901EB0A003A46594620
:102B8000FDF764FC291D01A800F00AFC0146E81CC1
:102B900001AA1154291D01A801F046FD0E900E98BE
:102BA000002806DA14A00E99FDF718FB6FF001005B
:102BB000A2E70020A0E700005B4552525D202064A0
:102BC000617461204973204E756C6C200A0000000E
:102BD0006C656E203D202564202C20734469644C74
:102BE000656E203D202564202C646174615F6C65F6
:102BF0006E203D2025640A00756172742077726929
:102C00007465206572726F72202564200A000000CE
:102C10002DE9F04780460C4617461D46089E94F85D
:102C200000900CB105B136B930A0FDF7D7FA4FF0DE
:102C3000FF30BDE8F087B8F1000F54D115213748B7
:102C4000FDF77BFCB9F1010F06D0B9F1020F11D0ED
:102C5000B9F1050F45D124E0304A59322F49601CA3
:102C6000FFF760FB01202D49633908700025002023
:102C7000306037E02949543101F11800FFF7C0FBFB
:102C800058B9264854300168C5F8011000796871B8
:102C9000032028700620306002E04FF0FF30C8E7C4
:102CA00020E07A1E611C1D484838FDF7CFFB781ED6
:102CB0001A496339C1F8350010211848633890F873
:102CC000632064308154643890F86300401C1349D9
:102CD000633981F86300032008700025002030600C
:102CE00000E000BF00BF0020A3E7000067697A5042
:102CF000726F746F636F6C49737375656450726F34
:102D000063657373204572726F72202C20496C6C5E
:102D10006567616C20506172616D0A00C701002017
:102D200070B5044625462CB90FA0FDF757FA4FF0B1
:102D3000FF3070BD412205F108010F48FDF786FB09
:102D40000F210D48EF3890F8A220A3308154A3380A
:102D500090F8A200401C0849EF3981F8A200052034
:102D600008700020E5E700004E545020697320658C
:102D70006D707479200A00005302002010B50446DB
:102D80002CB9CAA0FDF72AFA4FF0FF3010BD2089F8
:102D9000FFF78EF92081D1480078C0F38000217AB6
:102DA000C1F38001884256D0207AC0F38000002809
:102DB00029D0207A00F0010078B10021C84890F8AD
:102DC000782079308154793890F87800401CC449D3
:102DD00081F87800C3A0FDF701FA207AC0F3400023
:102DE000002838D00121BE4890F8782079308154ED
:102DF000793890F87800401CB94981F87800C1A072
:102E0000FDF7ECF927E0207A00F0010078B100210D
:102E1000B34890F8782079308154793890F8780068
:102E2000401CAF4981F87800AEA0FDF7D7F9207AB1
:102E3000C0F3400078B10221A94890F87820793099
:102E40008154793890F87800401CA54981F87800C1
:102E5000B3A0FDF7C3F9A1480078C0F3C000217A00
:102E6000C1F3C00188422CD0207AC1089B48007869
:102E700061F3C30099490870207AC0F3C00080B1A3
:102E80000321974890F8782079308154793890F868
:102E90007800401C924981F87800A8A0FDF79EF9BF
:102EA0000FE004218E4890F87820793081547938E9
:102EB00090F87800401C8A4981F87800A7A0FDF7B7
:102EC0008DF986480078C0F30010217AC1F3001113
:102ED00088422CD0207A01098048007861F30410E0
:102EE0007E490870207AC0F3001080B105217C482B
:102EF00090F8782079308154793890F87800401C27
:102F0000774981F878009DA0FDF768F90FE0062168
:102F1000734890F8782079308154793890F87800A7
:102F2000401C6F4981F878009CA0FDF757F96B4869
:102F30000078C0F34010217AC1F3401188422CD0B0
:102F4000207A41096548007861F3451063490870AB
:102F5000207AC0F3401080B10721614890F87820B2
:102F600079308154793890F87800401C5C4981F8B8
:102F7000780093A0FDF732F90FE00821584890F847
:102F8000782079308154793890F87800401C544981
:102F900081F8780091A0FDF721F950484078C0F3FE
:102FA000C001607AC0F3C00081422CD0607AC108B1
:102FB0004A48407861F3C30048494870607AC0F3DA
:102FC000C00080B10B21464890F8782079308154B8
:102FD000793890F87800401C414981F8780087A042
:102FE000FDF7FCF80FE00C213D4890F8782079308F
:102FF0008154793890F87800401C394981F878007C
:1030000085A0FDF7EBF835484078C0F30011607AF1
:10301000C0F3001081422CD0607A01092F4840781B
:1030200061F304102D494870607AC0F3001080B13C
:1030300009212B4890F8782079308154793890F81C
:103040007800401C264981F878007BA0FDF7C6F87F
:103050000FE00A21224890F878207930815479389D
:1030600090F87800401C1E4981F8780079A0FDF79F
:10307000B5F80D211A4890F87820793081547938C4
:1030800090F87800401C164981F87800607A00F0CA
:10309000070081F8E200084690F8E21074A0FDF7FE
:1030A0009DF802200E49087000206FE667697A508B
:1030B000726F746F636F6C4D6F64756C6553746180
:1030C000747573204572726F72202C20496C6C6588
:1030D00067616C20506172616D0A00006A00002017
:1030E000640100204F6E426F617264696E673A201E
:1030F000536F66744150206F7220576562206D6F68
:1031000064650A004F6E426F617264696E673A20AF
:103110004169724C696E6B206D6F64650A00000036
:103120004F6E426F617264696E673A2053746174C6
:10313000696F6E206D6F64650A000000576946690B
:10314000207374617475733A20696E2062696E64CD
:10315000696E67206D6F64650A00000057694669F3
:10316000207374617475733A206F75742062696E90
:1031700064696E67206D6F64650A0000576946696F
:10318000207374617475733A20636F6E6E65637437
:10319000656420726F757465720A0000576946692C
:1031A000207374617475733A20646973636F6E6E13
:1031B000656374656420726F757465720A0000003F
:1031C00057694669207374617475733A20636F6E32
:1031D0006E6563746564206D326D0A0057694669D7
:1031E000207374617475733A20646973636F6E6ED3
:1031F0006563746564206D326D0A00005769466925
:10320000207374617475733A2061707020636F6EFF
:103210006E6563740A000000576946692073746123
:103220007475733A206E6F2061707020636F6E6EDC
:103230006563740A00000000576946692073746171
:103240007475733A20696E2074657374206D6F64B1
:10325000650A000057694669207374617475733A92
:10326000206F75742074657374206D6F64650A0037
:1032700052535349206973202564200A000000003E
:1032800070B5044625462CB919A0FCF7A7FF4FF0EE
:10329000FF3070BD1B48A9680160E9684160298A58
:1032A0000181A97C8172A0F1E301B1F8E300FEF78E
:1032B000FFFE1449E339A1F8E300D1F8EB00FEF773
:1032C00004FF1049E339C1F8EB000E210D48E33843
:1032D00090F88D208E3081548E3890F88D00401CEF
:1032E0000849E33981F88D00042008700020D0E7F8
:1032F0004552523A204E545020697320656D7074C7
:1033000079200A004702002010B5FFF739F904467A
:1033100000BFFFF735F9001BB0F5167FF9D901F0B2
:1033200055F810BD10B500240E4890F8420000B9C1
:1033300010BD0DA0FCF752FF0A48B0F85D104330F5
:1033400001F072F904460748B0F85D00A04202D0CF
:103350000DA0FCF743FFFFF713F90249C1F85F0026
:1033600000BFE5E7640100205761726E696E673A3D
:103370002074696D656F75742C20726573656E6459
:103380002064617461200A004552523A20726573CC
:10339000656E642064617461206572726F720A00E8
:1033A00010B502460024002302B109B9002010BD67
:1033B000022303E0D05C2044C4B25B1C481E984248
:1033C000F8D82046F3E7000070B504460D462CB946
:1033D0000FA0FCF703FF4FF0FF3070BD2221124811
:1033E000FDF7ABF82A4621460F48801CFDF72EF862
:1033F0000D484138A0F85D50012180F84210FFF7D8
:10340000BFF809494139C1F85F000020E5E7000035
:103410004552523A206461746120697320656D7071
:103420007479200A00000000A501002070B5044650
:10343000094D2CB909A0FCF7D1FE4FF0FF3070BD4B
:103440002879401C2179884204D122210248801E1B
:10345000FDF773F80020F2E7A70100204552523A29
:10346000206461746120697320656D707479200A2D
:103470000000000070B504460D46002624B90AA0DD
:10348000FCF7ACFE701E70BD2A4621460E4801F0C6
:103490007DF80646AE4205D00CA0FCF79FFE4FF02B
:1034A000FF30F0E73046EEE74552523A2067697A3E
:1034B000507574446174612062756620697320657B
:1034C0006D707479200A0000940200204552523A2F
:1034D000204661696C656420746F2072625772695E
:1034E0007465200A000000002DE9FF4105460E46E4
:1034F0001746002436B920A0FCF770FE601E04B009
:10350000BDE8F0816846FFF7BBFA05208DF804009E
:10351000234890F83910D0F83900401C204AC2F8EE
:103520003900C8B28DF805008DF808500B20FEF761
:10353000BFFDADF802003A4631460DF10900FCF737
:1035400085FF0F216846FFF72BFF8DF80E000F2136
:10355000684601F069F80446002C06DA214611A0FD
:10356000FCF73CFE6FF00100C9E70F216846FFF74A
:103570002BFF2046C3E7000067697A5265706F72BF
:103580007444617461204572726F72202C20496C02
:103590006C6567616C20506172616D0A000000000B
:1035A000640100204552523A20756172742077728E
:1035B000697465206572726F72202564200A0000AC
:1035C0002DE9F04704460D461746089E4FF00009C6
:1035D000CA46C8461BB94FF0FF30BDE8F0873946F0
:1035E0002846FEF78DFD8046B8F1000F07D1185D23
:1035F00005F0070106FA01F1084318551EE0B8F17D
:10360000010F1BD1F0B205F00701C1F1080140FA2A
:1036100001F905F00700C0F10801FF20084100EAA8
:10362000060A601C185C40EA0900611C5854185DC9
:1036300005F007010AFA01F1084318550020CCE70C
:103640002DE9F04F8FB005460C4616469946189F57
:103650004FF0000AD34600200E908046B9F1000FCB
:1036600000D027B94FF0FF300FB0BDE8F08F3A46D9
:10367000494601A8FCF7EAFE012F09D9394601A8FD
:10368000FEF753FDB0F1FF3F02D14FF0FF30EBE703
:1036900031462046FEF734FD8246BAF1000F0CD1C8
:1036A00001A8405D04F007010841C6F10802FF21AE
:1036B0001141084040EA080821E0BAF1010F1ED18B
:1036C00001A9681C085C04F00701C1F10801711A26
:1036D000C1F10802FF21114100EA010B01A8405D80
:1036E00004F0070108410E9004F00700C0F1080142
:1036F0000BFA01F040EA08080E9848EA0008404634
:10370000B2E7000002480068401C014908607047A9
:103710006C00002010B503460020541AB4FBF3F0EF
:1037200010BD00002DE9FF5F07460D4693464FF0A0
:1037300000082E46A9462C46AA4607B125B94FF0E7
:10374000FF3004B0BDE8F09F4FF00008ABE0781CFC
:1037500010F80800142873D2DFE800F07374759F26
:103760009F767778799F9F9F9F7A8493800A2C4FCA
:10377000307850490870084601784FA0FCF72EFDBC
:103780004C48007801280AD108215148FDF7ADFACC
:103790005048007880F001004E49087009E0082187
:1037A0004B48FDF7A0FA4B48007880F001004949EA
:1037B000087073E070783F4948700846417846A029
:1037C000FCF70CFD3B48407801280AD19621800780
:1037D000FEF707FA4648007880F001004449087077
:1037E0000AE0C7214FF08040FEF7FBF9404800781F
:1037F00080F001003E49087050E0B0782D49887093
:10380000084681783BA0FCF7E9FC2A48807801282B
:103810000AD1B4218007FEF7E2F93C48007880F035
:1038200001003A4908700AE0BE214FF08040FEF7DF
:10383000D6F93648007880F00100344908702DE050
:103840002BE02BE02AE029E028E027E026E025E035
:1038500099F800102EA0FCF7C1FC1FE02FA0FCF788
:10386000BDFC1BE0A17962792379A068CDE9003223
:10387000CDE90210E378A27821882DA0FCF7AEFCF8
:103880000CE036A0FCF7AAFC39A0FCF7A7FC9AF8DC
:1038900000103BA0FCF7A2FC00E000BF00BF08F155
:1038A000010000F0FF08387840453FF750AF002096
:1038B00047E70000D80200204576743A2045564577
:1038C0004E545F4C69676874202564200A0000002C
:1038D00000080140260000204576743A20455645F0
:1038E0004E545F7761746572202564200A000000E1
:1038F000240000204576743A4556454E545F77695A
:103900006E646F77732025640A0000002500002094
:10391000525353492025640A000000005452414E7E
:1039200053504152454E545F44415441200A0000D7
:10393000574946495F4E5450203A205B25642D2557
:10394000642D256420253032643A253032643A25CE
:103950003032645D5B25645D200A00004D4F4455A4
:103960004C4520494E464F202E2E2E0A00000000C6
:10397000574946204D4F44554C45202E2E2E0A00C7
:103980006D6F64756C6554797065203A205B2564B1
:103990005D200A002DE9F04790B00646002700257B
:1039A00000200290019000248146804636B98EA006
:1039B000FCF714FC601E10B0BDE8F087FEF7E6FDD2
:1039C00002AA93499348FEF787FF0746002F70D15C
:1039D00091A0FCF703FCFEF7D3FD8246BDF808205A
:1039E000514692A0FCF7FAFB002506E08848415DAD
:1039F00093A0FCF7F3FB681C85B2BDF80800854274
:103A0000F4DB91A0FCF7EAFB814C20790F2851D020
:103A10000ADC0E2874D2DFE800F07316731A737391
:103A2000443973734573463D182854D006DC112879
:103A300049D0142848D0162862D135E0222854D025
:103A40002A285DD131E02046FEF788FE60E0E27969
:103A5000A1797EA0FCF7C2FB01A8009008F1090043
:103A6000BDF808301A1A6A48083000EB080103ABA9
:103A70004846FFF7CDF840B9E37903A92046019AFB
:103A8000FFF726F875A0FCF7A9FB41E02046FEF7FA
:103A9000C3FD3DE02046FEF7BFFD2046FFF76EF96F
:103AA00036E000BF00BF00BF00BF2046FFF7BEFCEE
:103AB0002EE02EE02046FEF7AFFD6BA0FCF78EFB5C
:103AC000FFF722FC24E023E02046FFF7AFFC6BA0C9
:103AD000FCF784FB1CE02046FFF7A8FC2046FFF71C
:103AE000CFFB6EA0FCF77AFB12E02046FFF79EFCAE
:103AF0002046FFF715F96FA0FCF770FB08E0FFE721
:103B000002212046FEF7D8FD71A0FCF767FB00BF3D
:103B10000DE017F1020F0AD13D4C01212046FEF7BE
:103B2000CBFD71A0FCF75AFB6FF0010043E738486A
:103B3000401E0078062850D2DFE800F04F03132320
:103B40002F3F00203249491E08701322BC31A1F1D9
:103B50005900FFF7E7FD15212D486230FCF7EDFC19
:103B60003CE000202A49491E08700122E231A1F1FF
:103B70006A00FFF7D7FD152125487730FCF7DDFCFB
:103B80002CE000202249491E08700846D0F8352054
:103B90001B316330FFF7C6FD20E000201C49491EA1
:103BA00008700C22E331A1F15600FFF7BBFD15218F
:103BB00017488C30FCF7C1FC10E000201449491E66
:103BC00008704122EF31A1F14D00FFF7ABFD41211B
:103BD0000F48A130FCF7B1FC00E000BF00BF304649
:103BE000FEF770FC0020E6E647697A77697473484F
:103BF000616E646C65204572726F72202C20496C76
:103C00006C6567616C20506172616D0A0000000094
:103C10006501002094020020476574204F6E6520E6
:103C20005061636B6574210A0000000057694669A2
:103C3000324D43555B2534643A2534645D3A2000A7
:103C400025303278200000000A000000666C6167B1
:103C5000202578202578200A0000000041636B446D
:103C6000617461203A200A007265706F72743A4D77
:103C70004355207265626F6F74210A0041636B20A7
:103C800050524F44554354494F4E5F4D4F44452089
:103C900073756363657373200A00000041636B20D2
:103CA0004745545F5554542073756363657373209F
:103CB0000A00000041636B204745545F4D6F6475F7
:103CC0006C652073756363657373200A00000000E0
:103CD0004552523A20636D6420636F6465206572BB
:103CE000726F72210A0000004552523A20636865E3
:103CF000636B2073756D206572726F72210A00000C
:103D000010B534200A4908600A48C860084600F027
:103D1000E1FB18B908A0FCF761FA02E00BA0FCF780
:103D20005DFA4FF498710E48FCF707FC10BD0000D7
:103D300094020020A40200207262437265617465DF
:103D40002053756363657373200A000072624372C7
:103D500065617465204661696C64200A000000009A
:103D60006401002030B587B005460024062D7CD2C2
:103D7000DFE805F003305F90BDEA01A8FEF780FEA2
:103D80000B208DF808008B4890F83910D0F83900D6
:103D9000401C884AC2F83900C8B28DF809000520D5
:103DA000FEF786F9ADF80600092101A8FFF7F8FA39
:103DB0008DF80C00092101A800F036FC0446002C07
:103DC00003DA21467CA0FCF709FA092101A8FFF7D4
:103DD000FBFAEAE004A8FEF753FE09208DF8140070
:103DE000744890F83910D0F83900401C714AC2F874
:103DF0003900C8B28DF815008DF818500620FEF76E
:103E000057F9ADF812000A2104A8FFF7C9FA8DF896
:103E100019000A2104A800F007FC0446002C03DA6C
:103E2000214665A0FCF7DAF90A2104A8FFF7CCFACD
:103E3000BBE004A8FEF724FE09208DF814005D48BD
:103E400090F83910D0F83900401C5A4AC2F83900AD
:103E5000C8B28DF815008DF818500620FEF728F925
:103E6000ADF812000A2104A800E09AE0FFF798FAE2
:103E70008DF819000A2104A800F0D6FB0446002C96
:103E800003DA21464CA0FCF7A9F90A2104A8FFF7A0
:103E90009BFA8AE001A8FEF7F3FD13208DF80800D5
:103EA000444890F83910D0F83900401C414AC2F813
:103EB0003900C8B28DF809000520FEF7F9F8ADF811
:103EC0000600092101A8FFF76BFA8DF80C00092103
:103ED00001A800F0A9FB0446002C03DA214636A015
:103EE000FCF77CF9092101A8FFF76EFA5DE001A853
:103EF000FEF7C6FD15208DF808002E4890F8391001
:103F0000D0F83900401C2B4AC2F83900C8B28DF8ED
:103F100009000520FEF7CCF8ADF80600092101A83C
:103F2000FFF73EFA8DF80C00092101A800F07CFB98
:103F30000446002C03DA21461FA0FCF74FF90921A3
:103F400001A8FFF741FA30E001A8FEF799FD29200A
:103F50008DF80800174890F83910D0F83900401C47
:103F6000144AC2F83900C8B28DF809000520FEF7DE
:103F70009FF8ADF80600092101A8FFF711FA8DF8A6
:103F80000C00092101A800F04FFB0446002C03DAC5
:103F9000214609A0FCF722F9092101A8FFF714FA2C
:103FA00003E00CA0FCF71AF900BF00BF204607B0E1
:103FB00030BD0000640100204552523A2075617204
:103FC00074207772697465206572726F722025643F
:103FD000200A00004552523A204366674D6F6465DF
:103FE000206572726F72210A0000000010B58020F7
:103FF0000949086000F020F840200749091F0860BF
:1040000000F01AF840200449086000F015F88020FC
:104010000149091F086010BD1408014070B504462D
:1040200000F072F8204600F045F800F095F80546DB
:1040300000F082F8284670BD002001E0411CC8B2A3
:104040000A28FBDB7047000010B580200749086094
:10405000FFF7F2FF402005490860FFF7EDFF402021
:104060000249091D0860FFF7E7FF10BD1008014075
:1040700070B50024002516E06006040E40200C49AF
:104080000860FFF7D9FF0A480838006800F0800090
:1040900008B1601CC4B240200549091D0860FFF743
:1040A000CBFF681CC5B2082DE6DB204670BD0000C2
:1040B0001008014070B50446002520E004F080009F
:1040C00018B180200F49086003E080200D49091DC8
:1040D0000860FFF7B1FF40200A490860FFF7ACFF16
:1040E00040200849091D0860072D02D18020091FC2
:1040F00008606006040EFFF79FFF681CC5B2082D1C
:10410000DCDB70BD1008014010B580200949086053
:1041100040200860FFF790FF80200649091D0860D5
:10412000FFF78AFF40200349091D0860FFF784FF5D
:1041300010BD00001008014010B58020054908603E
:104140004020091F0860FFF777FF80200149091F01
:10415000086010BD1408014010B580200C490860AB
:10416000FFF76AFF40200A490860FFF765FF08482B
:104170000838006800F0800008B1012400E0002445
:1041800040200349091D0860FFF756FF204610BD77
:10419000100801404FF4A060FCF7ECFE4FF4E13052
:1041A00000F09CFAFDF716FFFCF748FFFCF7ECFE69
:1041B00000F024F941F61F41C720FCF749FEFCF747
:1041C000B9FBFCF747FCFCF718FCFCF713FE00F00A
:1041D0004FFBFCF7E1FD0120FFF7C4FDCEE068488E
:1041E000FDF782FA012814D165488278017865A02C
:1041F000FBF7F4FF6248027805211020FCF7B0FFBE
:104200005F48827803211020FCF7AAFF6420FDF7A5
:1042100003FF4620FFF702FF18B9FCF705FE5F49D0
:104220000860E8210420FCF77DFD5D490860084630
:10423000062102681020FCF793FF5848006800F040
:104240005DFC5849584A126841F8220056480068F7
:10425000401C55490860084600680A286BD153483D
:104260000068FDF7A1FE044600F064FC4B490860BD
:104270000846006800F042FC044622460421102053
:10428000FCF7BCFF4A494548006800F07FFC14D2A7
:104290004848007830B908214748FCF726FD01203E
:1042A000464908704648007838B9BE214FF0804032
:1042B000FDF795FC0020414988703D49374800686A
:1042C00000F064FD1AD83F493448006800F05EFCF5
:1042D00014D23848007838B9BE214FF08040FDF73D
:1042E0007EFC0020354988703548007830B90821B7
:1042F0003148FCF7F8FC0020304908703149274864
:10430000006800F043FD13D82A48007830B9B42182
:104310000807FDF764FC01202849887028480078C8
:1043200030B908212448FCF7DEFC0020234908703E
:1043300000201D4908601A48006823280ADA22482C
:10434000007838B900214FF08040FDF74AFC012089
:104350001A4948701248006823280ADB1A48007876
:1043600038B9C7214FF08040FDF73BFC00201349CE
:10437000487000F05FFA1148FFF70CFB2FE70000D0
:10438000140000200D0A20CAAAB6C83A25642CCE13
:10439000C2B6C83A2564200D0A0000001C000020A7
:1043A0002000002074000020280000202C000020A5
:1043B000000048422600002000080140D8020020EA
:1043C000250000200000484324000020012080F345
:1043D000138800BF00BF0748006800F4E06006498A
:1043E0000843001D03490860BFF34F8F00BF00BFA3
:1043F000FEE700000CED00E00000FA0510B50C230C
:104400000EA200211920FCF7E5FF0C230EA20321C8
:104410000020FCF7DFFF0C230EA205210020FCF793
:10442000D9FF0C230EA204210020FCF7D3FF0C239C
:104430000DA206210020FCF7CDFF10BD3C666C6F7D
:10444000776572706F743E0074656D70657261742B
:104450007572650068756D696469747900000000A3
:104460006C69676874000000736F696C000000007D
:1044700000B5024612B94FF0FF3000BD5068916898
:10448000884201D10020F8E750689168884203D241
:1044900090685168401AF0E7104600F014F851682F
:1044A0009368C91A401AE8E730B5044614B94FF0CA
:1044B000FF3030BD204600F006F805462046FFF7E5
:1044C000D7FF281AF5E7014611B94FF0FF307047C2
:1044D0000868FCE7014611B94FF0FF307047C86823
:1044E0004860C86888600020F8E72DE9F04104467C
:1044F0000F461646002514B9681EBDE8F08117B9AD
:104500004FF0FF30F9E76068A168884214D2204676
:10451000FFF7AEFFB04201D9304602E02046FFF778
:10452000A7FF054661682A463846FBF78FFF60689B
:10453000284460602846E0E72046FFF7C4FF616832
:10454000E268891A401AB0420AD9354661682A469B
:104550003846FBF77BFF6068284460602846CCE75C
:104560002046FFF7B0FF6168E268891A451A616862
:104570002A463846FBF76AFFE0686060721B7919CB
:104580002046FFF7B2FF05442846B6E72DE9F04183
:1045900004460F461546002604B11FB94FF0FF3000
:1045A000BDE8F0812046FFF77FFFA84202D86FF0F8
:1045B0000100F5E76068A16888422AD82046FFF725
:1045C00082FFA168E268891A461AB54213D8A0682A
:1045D0002A463946FBF73AFFA0682844A0602046E7
:1045E000FFF771FFE1680844A168884201D1E068E3
:1045F000A0602846D4E7A06832463946FBF726FF7C
:10460000E068A060AA1BB9192046FFF7BFFF30443D
:10461000C6E7A0682A463946FBF718FFA068284479
:10462000A0602846BCE700002DE9F04105460E4693
:10463000002415B9601EBDE8F08100241BE0295D4F
:104640001D48FDF7A2FC00BF40211B48FDF7D0FB31
:104650000028F9D0022C0DD3285DFF280AD155215E
:104660001548FDF792FC00BF40211348FDF7C0FB41
:104670000028F9D0641CB442E1D3FDF781FF07465E
:10468000324639460DA0FBF7A9FD00240DE0295D57
:104690000FA0FBF7A3FD022C06D3285DFF2803D152
:1046A00055210BA0FBF79AFD641CB442EFD30AA07E
:1046B000FBF794FD3046BEE7004800404D435532BD
:1046C000576946695B2534643A2534645D3A2000B5
:1046D00025303278200000000A00000010B586B0B6
:1046E000044601210420FCF745FF01218803FCF763
:1046F00041FF4FF40070ADF8140003208DF8160050
:1047000018208DF8170005A91C48FCF710FA4FF483
:104710008060ADF8140004208DF8170005A9174833
:10472000FCF705FA01940020ADF80800ADF80A0086
:10473000ADF80C00ADF810000C20ADF80E0001A98A
:104740000F48FDF7B1FB01210D48FDF7F7FA0122F3
:1047500040F225510A48FDF782FB25208DF8000024
:1047600003208DF801008DF8020001208DF8030070
:104770006846FCF7C7FB06B010BD0000000801400A
:104780000038014010B586B0044601210820FCF72E
:10479000F1FE01218804FCF7CDFE2448FDF7DAFA8A
:1047A0004FF48060ADF8100003208DF8120018203F
:1047B0008DF8130004A91E48FCF7B9F94FF4006006
:1047C000ADF8100004208DF8130004A91848FCF778
:1047D000AEF900940020ADF80400ADF80600ADF885
:1047E0000800ADF80C000C20ADF80A0069460F482F
:1047F000FDF75AFB01210D48FDF7A0FA012240F216
:1048000025510A48FDF72BFB27208DF814000320C3
:104810008DF8150004208DF8160001208DF8170082
:1048200005A8FCF76FFB06B010BD00000048004073
:10483000000C014010B50A4880780A49C1F803000D
:1048400007480078C1F807000748006800F056F9EB
:104850000449C1F80B0005480068C1F80F0010BDFD
:1048600014000020D80200201C000020200000209E
:1048700010B513210848FBF760FE002006490870B8
:104880004870C1F80300C1F80700C1F80B00887038
:10489000C1F80F0010BD0000D802002090EA010FFF
:1048A00048BF81F0004100F1AA82421A3CBF801A41
:1048B00089184FEAD0524FF07F4C1CEA410FA2EB0F
:1048C000D15318BF9CEA026F00F03B804FF0004CC0
:1048D0004CEA00204CEA012121FA03FC10EB0C0CFD
:1048E0001ED202F1FF325FEA1C2040EBC25038BFFB
:1048F00070471CF07F0F4FEA400C18BFBCF17F4F90
:1049000038BF7047C3F12003994008BF20F0010071
:10491000BCF17F4F38BF7047A0F1C04000F031BA02
:104920004FEA3C00000A40EBC25028BF1CF0FF0FCA
:104930004FEA400CE6D018BFBCF17F4F38BF70473C
:10494000EAE79CEA026F05D010EA5C0F08BF00F0AE
:104950000040704710B500F0CEF900BF64FBBE3ECA
:10496000401058BFC0F14040491058BFC1F140410C
:104970008142EFF3008070474FF47F0C1CEAD012A5
:104980001EBF1CEAD11392EA0C0F93EA0C0F00F041
:10499000858090EA010F48BF42F4807240F4000C19
:1049A00041F400002CF07F4120F07F4000B58142AF
:1049B000A2EB03020FF2081CACEB504EC0F100005A
:1049C0009EF800E04FEA4E0E00FB0EFC38BF490097
:1049D0004FEA2C1C02F5FA020CFB0EF34FEACE1E36
:1049E0004FEA112C4FEAC1210EEB635E42EB2242EB
:1049F0000EFB0CFC4FEA1C5300FB03114FEA112C79
:104A00004FEA01310EFB0CFC4FEADC4C00FB0C11B1
:104A1000C14228BF09184CEB03335DF804EB10EBDF
:104A2000410143EBC250B2F57C0F38BF704729D526
:104A300012F0F00F1CBF00F1C04000F000407047C2
:104A4000008182838485868788898B8C8D8E8F9167
:104A50009293959697999A9C9D9FA0A2A3A5A7A88B
:104A6000AAACAEB0B2B3B5B7B9BCBEC0C2C5C7C9B7
:104A7000CCCED1D4D7D9DCDFE2E6E9ECF0F3F7FA1B
:104A8000FE0000004FEA400C0CF1807CBCF17E4F30
:104A900028BF7047B0F1C04000F073B990EA010F31
:104AA0000CEAD11348BF42F48072624538BF6345B7
:104AB00007D213F47F0F16D080EA010000F0004007
:104AC000704710B500F017F9097EFC3E00F005B8FC
:104AD00080EA010000F00040704780EA010000F029
:104AE000004000F04EB912F47F0F04BF0248704737
:104AF00080EA010000F045B90000C07F41000B0EC4
:104B0000D3F19E0208D950F400034FEA032323FA9D
:104B100002F048BF4042704710B500F0ECF800BF0B
:104B200049922480002070476FF0004282EA200002
:104B30007047000010F0004148BF4042B0FA80F3D7
:104B400010FA03F2C3F19D030BD051EAC35101EBFC
:104B50001220530638BF704700F1010008BF20F053
:104B600001007047B0FA80F310FA03F2C3F19D031D
:104B70000AD0D90501EB1220530638BF704700F167
:104B8000010008BF20F001007047000050EA010C4E
:104B900000F113801CF5000F58BFBCF5000F01D4C5
:104BA0008842704707D710F5000F58BF11F5000F66
:104BB00015D488427047894270471CF5000F04D510
:104BC000BCF5000FF7D5814270474FF0807C1CEB9D
:104BD000400F38BF1CEB410F01D28142704710B526
:104BE00000F089F8922449004FF000504FF08051B6
:104BF000FFF7B6BE4FF47F0C1CEAD0121EBF1CEAB2
:104C0000D11392EA0C0F93EA0C0F00F0478090EA60
:104C1000010F48BF42F480724FF0004C4CEA002074
:104C20004CEA012102EB0302A0FB0113A2F50002F2
:104C3000002918BF43F001035B0028BF4FEA33038C
:104C400042EB22425FEA132C4CEBC2502EBFBCEB6E
:104C5000436FB2F57C0F70474FEA036CBCF1004F15
:104C600008BF20F00100B2F57C0F38BF70470BD5AC
:104C700082F0FF0212F5803FC8BF704700F1C040CC
:104C8000D8BF00F00040704700F5000C5FEA4C0C04
:104C900048BF7047B0F1C04000F073B890EA010F10
:104CA0000CEAD11348BF42F48072624538BF6345B5
:104CB00004D280EA010000F00040704710B500F017
:104CC0001AF800BF8900013E00F007B800F009B8EB
:104CD0005FEA410C5FEA1C6C08D080EA010000F03A
:104CE00050B85FEA400C5FEA1C6CF6D14FF0004010
:104CF000A0F5800070470EF1020E2EF0030E5EF854
:104D0000044B244204D44FEA4102B2F17F4F11D840
:104D10004FEA4003B3F17F4F0CD80ED14FEAD07C5D
:104D2000B2F17F4F0CEB4C0C0CF1020C08BF4CEBBA
:104D3000D17C04E04FF0080C01E04FEAD17C0CEB91
:104D40004C0324FA03F404F00704B4F1040C06D273
:104D50000EEB840CBDE810404CF0010C6047DFE81E
:104D60000CF0070802024FF00040A0F5800010BDD3
:104D70000846420018BFD2F1807288BF00F00040A0
:104D800010BDFF2141EAD050C005704751EA000C28
:104D900000F113801CF5000F58BFBCF5000F01D4C3
:104DA0008142704707D711F5000F58BF10F5000F6B
:104DB00015D481427047894270471CF5000F04D515
:104DC000BCF5000FF7D5884270474FF0807C1CEB94
:104DD000410F38BF1CEB400F01D28842704780EA78
:104DE000010081EA000180EA0100FFF7F8BE00003F
:104DF00090EA010F48BF81F000413FF556AD421ADD
:104E000004D882F00042A0EB020011444FEAD052D5
:104E10004FF07F4C1CEA410FA2EBD15318BF9CEA24
:104E2000026F4AD04FF0004C4CEA00204CEA0121BE
:104E300021FA03FCB0EB0C0C0FD412F0FE0F36D0AD
:104E40005FEA4C001DD5001240EBC25038BF7047DE
:104E50001CF03F0F18BF70470BE0A2F101025FEAA0
:104E60001C2040EBC25038BF70471CF07F0F18BFAA
:104E70007047C3F12003994014BF401E20F0010089
:104E8000704780084FEA122308BF7047B0FA80FCD1
:104E9000A2EB0C02CCF1280C60FA0CF093EA122F72
:104EA00004BF00EBC25070474FEAC3707047130A4B
:104EB0005FEADC1008BF7047F6E79CEA026F04D097
:104EC00010EA5C0F08BF0020704710B5FFF713FF12
:104ED00040DFF63E81F00040704700000000000017
:104EE0000000002F000000000700070000147F14DE
:104EF0007F1400242A7F2A120062640813230036DC
:104F00004955225000000503000000001C2241000A
:104F1000000041221C000014083E08140008083E4E
:104F20000808000000A06000000808080808000049
:104F300060600000002010080402003E5149453E18
:104F40000000427F40000042615149460021414536
:104F50004B31001814127F10002745454539003C9D
:104F60004A4949300001710905030036494949366B
:104F700000064949291E000036360000000056365A
:104F8000000000081422410000141414141400003E
:104F90004122140800020151090600324959513ECC
:104FA000007C1211127C007F49494936003E414184
:104FB0004122007F4141221C007F49494941007F35
:104FC00009090901003E4149497A007F0808087F24
:104FD0000000417F4100002040413F01007F081454
:104FE0002241007F40404040007F020C027F007F52
:104FF0000408107F003E4141413E007F0909090637
:10500000003E4151215E007F091929460046494969
:1050100049310001017F0101003F4040403F001F36
:105020002040201F003F4038403F006314081463B5
:1050300000070870080700615149454300007F419F
:10504000410000552A552A55000041417F000004C7
:105050000201020400404040404000000102040000
:10506000002054545478007F484444380038444465
:10507000442000384444487F0038545454180008F1
:105080007E0901020018A4A4A47C007F080404780F
:105090000000447D4000004080847D00007F102897
:1050A00044000000417F4000007C04180478007C2C
:1050B0000804047800384444443800FC24242418AC
:1050C0000018242418FC007C0804040800485454E8
:1050D000542000043F444020003C4040207C001C01
:1050E0002040201C003C4030403C00442810284414
:1050F000001CA0A0A07C004464544C44141414145C
:105100001414000000000000000000000000000077
:105110000000000000F80000000000000033300034
:10512000000000100C06100C06000000000000003B
:10513000000040C07840C0784000043F04043F04B1
:105140000400007088FC08300000001820FF211EB9
:105150000000F008F000E018000000211C031E21F0
:105160001E0000F00888700000001E21232419276B
:10517000211010160E0000000000000000000000CA
:105180000000000000E018040200000000071820E2
:10519000400000020418E000000000402018070052
:1051A0000000404080F0804040000202010F0102F8
:1051B0000200000000F0000000000101011F0101D9
:1051C0000100000000000000000080B0700000003E
:1051D00000000000000000000000000101010101CA
:1051E000010100000000000000000030300000005D
:1051F0000000000000008060180400601806010034
:10520000000000E010080810E000000F102020103F
:105210000F00001010F8000000000020203F2020A8
:10522000000000700808088870000030282422213F
:1052300030000030088888483000001820202011F5
:105240000E000000C02010F8000000070424243FD6
:10525000240000F80888880808000019212020117F
:105260000E0000E0108888180000000F11202011A7
:105270000E0000380808C83808000000003F000091
:1052800000000070880808887000001C222121227C
:105290001C0000E010080810E0000000312222117C
:1052A0000F00000000C0C00000000000003030000F
:1052B000000000000080000000000000806000008E
:1052C00000000000804020100800000102040810C7
:1052D00020004040404040404000040404040404D6
:1052E0000400000810204080000000201008040284
:1052F0000100007048080808F00000000030360186
:105300000000C030C828E810E00007182724231444
:105310000B000000C038E0000000203C2302022700
:10532000382008F8888888700000203F202020114D
:105330000E00C03008080808380007182020201088
:10534000080008F808080810E000203F202020107E
:105350000F0008F88888E8081000203F202023204C
:10536000180008F88888E8081000203F2000030093
:105370000000C03008080838000007182020221E4E
:10538000020008F808000008F808203F2101012168
:105390003F20000808F8080800000020203F2020D7
:1053A000000000000808F8080800C08080807F0026
:1053B000000008F888C028180800203F200126387F
:1053C000200008F8080000000000203F20202020D6
:1053D000300008F8F800F8F80800203F003F003FD0
:1053E000200008F830C00008F808203F2000071807
:1053F0003F00E01008080810E0000F1020202010E7
:105400000F0008F808080808F000203F21010101FA
:105410000000E01008080810E0000F18242438509D
:105420004F0008F8888888887000203F2000030C0F
:105430003020007088080808380000382021212218
:105440001C00180808F8080818000000203F200079
:10545000000008F808000008F808001F202020209D
:105460001F000878880000C83808000007380E01BF
:105470000000F80800F80008F800033C0700073CAB
:105480000300081868808068180820302C03032C5B
:1054900030200838C800C83808000000203F20002D
:1054A000000010080808C8380800203826212020ED
:1054B0001800000000FE020202000000007F4040D1
:1054C0004000000C30C00000000000000001063861
:1054D000C00000020202FE000000004040407F00C9
:1054E00000000000040202020400000000000000AE
:1054F00000000000000000000000808080808080AC
:105500008080000202040000000000000000000093
:1055100000000000808080800000001924222222E8
:105520003F2008F8008080000000003F112020117B
:105530000E000000008080800000000E112020205E
:105540001100000000808088F800000E112020105B
:105550003F200000808080800000001F2222222245
:105560001300008080F0888888180020203F2020C9
:1055700000000000808080808000006B94949493F1
:10558000600008F8008080800000203F210000209B
:105590003F2000809898000000000020203F20203D
:1055A0000000000000809898000000C08080807F8C
:1055B000000008F8000080808000203F24022D3089
:1055C0002000000808F8000000000020203F2020F4
:1055D00000008080808080808000203F20003F206D
:1055E000003F8080008080800000203F210000205C
:1055F0003F200000808080800000001F20202020AD
:105600001F00808000808000000080FFA12020110A
:105610000E000000008080808000000E112020A07D
:10562000FF80808080008080800020203F2120003B
:105630000100000080808080800000332424242426
:105640001900008080E0808000000000001F202002
:1056500000008080000000808000001F20202010BB
:105660003F20808080000080808000010E3008068E
:10567000010080800080008080800F300C030C309F
:105680000F0000808000808080000020312E0E31CD
:105690002000808080000080808080818E701806CD
:1056A000010000808080808080000021302C222139
:1056B000300000000000807C020200000000003F7B
:1056C000404000000000FF00000000000000FF005C
:1056D00000000002027C800000000040403F00000B
:1056E00000000006010102020404000000000000A6
:1056F0000000303132333435363738394142434493
:105700004546403058003031323334353637383939
:105710006162636465664030780004000008000040
:105720000000000000020001000010004C570008BB
:10573000000000207400000028010008C057000885
:1057400074000020DC080000440100080000000094
:105750000102030401020304060708090204060803
:105760000000000000000000000000000000000039
:1057700000000000000000007400002000A24A04A5
:1057800000000000000000000102030406070809F1
:105790000000000000000000000000000000000009
:1057A00000000000000000000000000000000000F9
:1057B00000000000000000000000000000000000E9
:04000005080000ED02
:00000001FF
